{
  "_format": "hh-sol-artifact-1",
  "contractName": "AnocareContract",
  "sourceName": "contracts/AnocareContract.sol",
  "abi": [
    {
      "inputs": [
        {
          "internalType": "address",
          "name": "_verifiedAnoProNFT",
          "type": "address"
        },
        {
          "internalType": "address",
          "name": "_anoPassNFT",
          "type": "address"
        },
        {
          "internalType": "address",
          "name": "_paymentToken",
          "type": "address"
        }
      ],
      "stateMutability": "nonpayable",
      "type": "constructor"
    },
    {
      "anonymous": false,
      "inputs": [
        {
          "indexed": true,
          "internalType": "address",
          "name": "anoPro",
          "type": "address"
        },
        {
          "components": [
            {
              "internalType": "address",
              "name": "wallet",
              "type": "address"
            },
            {
              "internalType": "uint256",
              "name": "rating",
              "type": "uint256"
            },
            {
              "internalType": "uint256",
              "name": "totalCases",
              "type": "uint256"
            },
            {
              "internalType": "uint256",
              "name": "totalRatings",
              "type": "uint256"
            },
            {
              "internalType": "uint256",
              "name": "earnings",
              "type": "uint256"
            }
          ],
          "indexed": false,
          "internalType": "struct AnocareContract.AnoPro",
          "name": "details",
          "type": "tuple"
        }
      ],
      "name": "AnoProRegistered",
      "type": "event"
    },
    {
      "anonymous": false,
      "inputs": [
        {
          "indexed": true,
          "internalType": "uint256",
          "name": "caseId",
          "type": "uint256"
        }
      ],
      "name": "CaseAccepted",
      "type": "event"
    },
    {
      "anonymous": false,
      "inputs": [
        {
          "indexed": true,
          "internalType": "uint256",
          "name": "caseId",
          "type": "uint256"
        }
      ],
      "name": "CaseClosed",
      "type": "event"
    },
    {
      "anonymous": false,
      "inputs": [
        {
          "indexed": true,
          "internalType": "uint256",
          "name": "caseId",
          "type": "uint256"
        }
      ],
      "name": "CaseRejected",
      "type": "event"
    },
    {
      "anonymous": false,
      "inputs": [
        {
          "indexed": true,
          "internalType": "uint256",
          "name": "caseId",
          "type": "uint256"
        },
        {
          "indexed": true,
          "internalType": "address",
          "name": "patient",
          "type": "address"
        },
        {
          "indexed": true,
          "internalType": "address",
          "name": "anoPro",
          "type": "address"
        },
        {
          "indexed": false,
          "internalType": "uint256",
          "name": "fee",
          "type": "uint256"
        },
        {
          "indexed": false,
          "internalType": "string",
          "name": "description",
          "type": "string"
        }
      ],
      "name": "CaseRequested",
      "type": "event"
    },
    {
      "anonymous": false,
      "inputs": [
        {
          "indexed": true,
          "internalType": "uint256",
          "name": "caseId",
          "type": "uint256"
        },
        {
          "indexed": true,
          "internalType": "address",
          "name": "patient",
          "type": "address"
        },
        {
          "indexed": true,
          "internalType": "address",
          "name": "anoPro",
          "type": "address"
        },
        {
          "indexed": false,
          "internalType": "uint256",
          "name": "amount",
          "type": "uint256"
        }
      ],
      "name": "PaymentProcessed",
      "type": "event"
    },
    {
      "anonymous": false,
      "inputs": [
        {
          "indexed": true,
          "internalType": "address",
          "name": "patient",
          "type": "address"
        },
        {
          "indexed": true,
          "internalType": "address",
          "name": "anoPro",
          "type": "address"
        },
        {
          "indexed": false,
          "internalType": "uint256",
          "name": "rating",
          "type": "uint256"
        }
      ],
      "name": "RatingSubmitted",
      "type": "event"
    },
    {
      "anonymous": false,
      "inputs": [
        {
          "indexed": true,
          "internalType": "uint256",
          "name": "caseId",
          "type": "uint256"
        },
        {
          "indexed": true,
          "internalType": "address",
          "name": "patient",
          "type": "address"
        },
        {
          "indexed": false,
          "internalType": "uint256",
          "name": "amount",
          "type": "uint256"
        }
      ],
      "name": "RefundIssued",
      "type": "event"
    },
    {
      "inputs": [
        {
          "internalType": "uint256",
          "name": "_caseId",
          "type": "uint256"
        }
      ],
      "name": "acceptCase",
      "outputs": [],
      "stateMutability": "nonpayable",
      "type": "function"
    },
    {
      "inputs": [
        {
          "internalType": "address",
          "name": "_admin",
          "type": "address"
        }
      ],
      "name": "addAdmin",
      "outputs": [],
      "stateMutability": "nonpayable",
      "type": "function"
    },
    {
      "inputs": [
        {
          "internalType": "address",
          "name": "",
          "type": "address"
        }
      ],
      "name": "admins",
      "outputs": [
        {
          "internalType": "bool",
          "name": "",
          "type": "bool"
        }
      ],
      "stateMutability": "view",
      "type": "function"
    },
    {
      "inputs": [],
      "name": "anoPassNFT",
      "outputs": [
        {
          "internalType": "contract AnoPassNFT",
          "name": "",
          "type": "address"
        }
      ],
      "stateMutability": "view",
      "type": "function"
    },
    {
      "inputs": [
        {
          "internalType": "address",
          "name": "",
          "type": "address"
        },
        {
          "internalType": "uint256",
          "name": "",
          "type": "uint256"
        }
      ],
      "name": "anoProCaseIds",
      "outputs": [
        {
          "internalType": "uint256",
          "name": "",
          "type": "uint256"
        }
      ],
      "stateMutability": "view",
      "type": "function"
    },
    {
      "inputs": [],
      "name": "anoProFeePercentage",
      "outputs": [
        {
          "internalType": "uint256",
          "name": "",
          "type": "uint256"
        }
      ],
      "stateMutability": "view",
      "type": "function"
    },
    {
      "inputs": [
        {
          "internalType": "address",
          "name": "",
          "type": "address"
        }
      ],
      "name": "anoPros",
      "outputs": [
        {
          "internalType": "address",
          "name": "wallet",
          "type": "address"
        },
        {
          "internalType": "uint256",
          "name": "rating",
          "type": "uint256"
        },
        {
          "internalType": "uint256",
          "name": "totalCases",
          "type": "uint256"
        },
        {
          "internalType": "uint256",
          "name": "totalRatings",
          "type": "uint256"
        },
        {
          "internalType": "uint256",
          "name": "earnings",
          "type": "uint256"
        }
      ],
      "stateMutability": "view",
      "type": "function"
    },
    {
      "inputs": [
        {
          "internalType": "uint256",
          "name": "",
          "type": "uint256"
        }
      ],
      "name": "casePaid",
      "outputs": [
        {
          "internalType": "bool",
          "name": "",
          "type": "bool"
        }
      ],
      "stateMutability": "view",
      "type": "function"
    },
    {
      "inputs": [
        {
          "internalType": "uint256",
          "name": "",
          "type": "uint256"
        }
      ],
      "name": "cases",
      "outputs": [
        {
          "internalType": "uint256",
          "name": "caseId",
          "type": "uint256"
        },
        {
          "internalType": "address",
          "name": "anoPro",
          "type": "address"
        },
        {
          "internalType": "address",
          "name": "patient",
          "type": "address"
        },
        {
          "internalType": "uint256",
          "name": "consultationFee",
          "type": "uint256"
        },
        {
          "internalType": "enum AnocareContract.CaseStatus",
          "name": "status",
          "type": "uint8"
        },
        {
          "internalType": "bool",
          "name": "patientClosed",
          "type": "bool"
        },
        {
          "internalType": "bool",
          "name": "anoProClosed",
          "type": "bool"
        },
        {
          "internalType": "uint256",
          "name": "timestamp",
          "type": "uint256"
        },
        {
          "internalType": "string",
          "name": "description",
          "type": "string"
        }
      ],
      "stateMutability": "view",
      "type": "function"
    },
    {
      "inputs": [],
      "name": "consultationFeeInTokens",
      "outputs": [
        {
          "internalType": "uint256",
          "name": "",
          "type": "uint256"
        }
      ],
      "stateMutability": "view",
      "type": "function"
    },
    {
      "inputs": [
        {
          "internalType": "address",
          "name": "_anoPro",
          "type": "address"
        }
      ],
      "name": "getAnoPro",
      "outputs": [
        {
          "internalType": "address",
          "name": "",
          "type": "address"
        },
        {
          "internalType": "uint256",
          "name": "",
          "type": "uint256"
        },
        {
          "internalType": "uint256",
          "name": "",
          "type": "uint256"
        },
        {
          "internalType": "uint256",
          "name": "",
          "type": "uint256"
        },
        {
          "internalType": "uint256",
          "name": "",
          "type": "uint256"
        }
      ],
      "stateMutability": "view",
      "type": "function"
    },
    {
      "inputs": [
        {
          "internalType": "uint256",
          "name": "_caseId",
          "type": "uint256"
        },
        {
          "internalType": "address",
          "name": "_anoPro",
          "type": "address"
        },
        {
          "internalType": "address",
          "name": "_patient",
          "type": "address"
        }
      ],
      "name": "isActiveCase",
      "outputs": [
        {
          "internalType": "bool",
          "name": "",
          "type": "bool"
        }
      ],
      "stateMutability": "view",
      "type": "function"
    },
    {
      "inputs": [],
      "name": "owner",
      "outputs": [
        {
          "internalType": "address",
          "name": "",
          "type": "address"
        }
      ],
      "stateMutability": "view",
      "type": "function"
    },
    {
      "inputs": [
        {
          "internalType": "address",
          "name": "",
          "type": "address"
        },
        {
          "internalType": "uint256",
          "name": "",
          "type": "uint256"
        }
      ],
      "name": "patientCaseIds",
      "outputs": [
        {
          "internalType": "uint256",
          "name": "",
          "type": "uint256"
        }
      ],
      "stateMutability": "view",
      "type": "function"
    },
    {
      "inputs": [],
      "name": "paymentToken",
      "outputs": [
        {
          "internalType": "contract IERC20",
          "name": "",
          "type": "address"
        }
      ],
      "stateMutability": "view",
      "type": "function"
    },
    {
      "inputs": [],
      "name": "platformFeePercentage",
      "outputs": [
        {
          "internalType": "uint256",
          "name": "",
          "type": "uint256"
        }
      ],
      "stateMutability": "view",
      "type": "function"
    },
    {
      "inputs": [],
      "name": "platformWallet",
      "outputs": [
        {
          "internalType": "address",
          "name": "",
          "type": "address"
        }
      ],
      "stateMutability": "view",
      "type": "function"
    },
    {
      "inputs": [],
      "name": "registerAnoPro",
      "outputs": [],
      "stateMutability": "nonpayable",
      "type": "function"
    },
    {
      "inputs": [
        {
          "internalType": "uint256",
          "name": "_caseId",
          "type": "uint256"
        }
      ],
      "name": "rejectCase",
      "outputs": [],
      "stateMutability": "nonpayable",
      "type": "function"
    },
    {
      "inputs": [
        {
          "internalType": "address",
          "name": "_admin",
          "type": "address"
        }
      ],
      "name": "removeAdmin",
      "outputs": [],
      "stateMutability": "nonpayable",
      "type": "function"
    },
    {
      "inputs": [
        {
          "internalType": "address",
          "name": "_anoPro",
          "type": "address"
        },
        {
          "internalType": "string",
          "name": "_description",
          "type": "string"
        }
      ],
      "name": "requestCase",
      "outputs": [
        {
          "internalType": "uint256",
          "name": "",
          "type": "uint256"
        }
      ],
      "stateMutability": "nonpayable",
      "type": "function"
    },
    {
      "inputs": [],
      "name": "showTotalCases",
      "outputs": [
        {
          "internalType": "uint256",
          "name": "",
          "type": "uint256"
        }
      ],
      "stateMutability": "view",
      "type": "function"
    },
    {
      "inputs": [
        {
          "internalType": "uint256",
          "name": "_caseId",
          "type": "uint256"
        },
        {
          "internalType": "uint256",
          "name": "_rating",
          "type": "uint256"
        }
      ],
      "name": "submitRating",
      "outputs": [],
      "stateMutability": "nonpayable",
      "type": "function"
    },
    {
      "inputs": [
        {
          "internalType": "uint256",
          "name": "_fee",
          "type": "uint256"
        }
      ],
      "name": "updateAnoProFeePercentage",
      "outputs": [],
      "stateMutability": "nonpayable",
      "type": "function"
    },
    {
      "inputs": [
        {
          "internalType": "uint256",
          "name": "_fee",
          "type": "uint256"
        }
      ],
      "name": "updateConsultationFee",
      "outputs": [],
      "stateMutability": "nonpayable",
      "type": "function"
    },
    {
      "inputs": [
        {
          "internalType": "uint256",
          "name": "_fee",
          "type": "uint256"
        }
      ],
      "name": "updatePlatformFeePercentage",
      "outputs": [],
      "stateMutability": "nonpayable",
      "type": "function"
    },
    {
      "inputs": [],
      "name": "verifiedAnoProNFT",
      "outputs": [
        {
          "internalType": "contract VerifiedAnoProNFT",
          "name": "",
          "type": "address"
        }
      ],
      "stateMutability": "view",
      "type": "function"
    }
  ],
  "bytecode": "0x608060405268056bc75e2d63100000600655600a600755605a60085534801561002757600080fd5b5060405161475e38038061475e833981810160405281019061004991906103b4565b600073ffffffffffffffffffffffffffffffffffffffff168273ffffffffffffffffffffffffffffffffffffffff16036100b8576040517f08c379a00000000000000000000000000000000000000000000000000000000081526004016100af90610464565b60405180910390fd5b600073ffffffffffffffffffffffffffffffffffffffff168373ffffffffffffffffffffffffffffffffffffffff1603610127576040517f08c379a000000000000000000000000000000000000000000000000000000000815260040161011e906104d0565b60405180910390fd5b600073ffffffffffffffffffffffffffffffffffffffff168173ffffffffffffffffffffffffffffffffffffffff1603610196576040517f08c379a000000000000000000000000000000000000000000000000000000000815260040161018d9061053c565b60405180910390fd5b600073ffffffffffffffffffffffffffffffffffffffff163373ffffffffffffffffffffffffffffffffffffffff1603610205576040517f08c379a00000000000000000000000000000000000000000000000000000000081526004016101fc906105a8565b60405180910390fd5b826000806101000a81548173ffffffffffffffffffffffffffffffffffffffff021916908373ffffffffffffffffffffffffffffffffffffffff16021790555080600260006101000a81548173ffffffffffffffffffffffffffffffffffffffff021916908373ffffffffffffffffffffffffffffffffffffffff16021790555081600160006101000a81548173ffffffffffffffffffffffffffffffffffffffff021916908373ffffffffffffffffffffffffffffffffffffffff16021790555033600460006101000a81548173ffffffffffffffffffffffffffffffffffffffff021916908373ffffffffffffffffffffffffffffffffffffffff16021790555033600360006101000a81548173ffffffffffffffffffffffffffffffffffffffff021916908373ffffffffffffffffffffffffffffffffffffffff1602179055505050506105c8565b600080fd5b600073ffffffffffffffffffffffffffffffffffffffff82169050919050565b600061038182610356565b9050919050565b61039181610376565b811461039c57600080fd5b50565b6000815190506103ae81610388565b92915050565b6000806000606084860312156103cd576103cc610351565b5b60006103db8682870161039f565b93505060206103ec8682870161039f565b92505060406103fd8682870161039f565b9150509250925092565b600082825260208201905092915050565b7f496e76616c6964206d656d62657273686970204e465420616464726573730000600082015250565b600061044e601e83610407565b915061045982610418565b602082019050919050565b6000602082019050818103600083015261047d81610441565b9050919050565b7f496e76616c6964204e4654206164647265737300000000000000000000000000600082015250565b60006104ba601383610407565b91506104c582610484565b602082019050919050565b600060208201905081810360008301526104e9816104ad565b9050919050565b7f496e76616c696420746f6b656e20616464726573730000000000000000000000600082015250565b6000610526601583610407565b9150610531826104f0565b602082019050919050565b6000602082019050818103600083015261055581610519565b9050919050565b7f496e76616c6964206f776e657220616464726573730000000000000000000000600082015250565b6000610592601583610407565b915061059d8261055c565b602082019050919050565b600060208201905081810360008301526105c181610585565b9050919050565b614187806105d76000396000f3fe608060405234801561001057600080fd5b50600436106101a95760003560e01c80637897c667116100f9578063d40cba6411610097578063f09790dd11610071578063f09790dd146104c0578063f8ef1382146104f8578063fa2af9da14610514578063fd1e0abc14610532576101a9565b8063d40cba641461046a578063e483015314610474578063eea3955314610490576101a9565b8063acadf86b116100d3578063acadf86b146103ca578063b3fdcd4f146103fe578063cdd78cfc1461042e578063cff6a5621461044c576101a9565b80637897c667146103605780638da5cb5b1461037c5780639e7eddb51461039a576101a9565b80633013ce291161016657806364c5d91a1161014057806364c5d91a146102ee5780636cad82881461030c57806370480275146103285780637085117114610344576101a9565b80633013ce2914610282578063429b62e5146102a05780635746696f146102d0576101a9565b806308a788bb146101ae578063147179d8146101de5780631785f53c146101fc57806318f23544146102185780631b6203b81461023657806325e65b8f14610252575b600080fd5b6101c860048036038101906101c39190612ba4565b610566565b6040516101d59190612bec565b60405180910390f35b6101e6610586565b6040516101f39190612c16565b60405180910390f35b61021660048036038101906102119190612c8f565b61058c565b005b610220610703565b60405161022d9190612c16565b60405180910390f35b610250600480360381019061024b9190612ba4565b610709565b005b61026c60048036038101906102679190612e02565b6107f9565b6040516102799190612c16565b60405180910390f35b61028a610f85565b6040516102979190612ebd565b60405180910390f35b6102ba60048036038101906102b59190612c8f565b610fab565b6040516102c79190612bec565b60405180910390f35b6102d8610fcb565b6040516102e59190612c16565b60405180910390f35b6102f6610fd5565b6040516103039190612ef9565b60405180910390f35b61032660048036038101906103219190612ba4565b610ffb565b005b610342600480360381019061033d9190612c8f565b6110f2565b005b61035e60048036038101906103599190612f14565b61124c565b005b61037a60048036038101906103759190612ba4565b61167a565b005b610384611802565b6040516103919190612f63565b60405180910390f35b6103b460048036038101906103af9190612f7e565b611828565b6040516103c19190612c16565b60405180910390f35b6103e460048036038101906103df9190612c8f565b611859565b6040516103f5959493929190612fbe565b60405180910390f35b61041860048036038101906104139190613011565b611a2a565b6040516104259190612bec565b60405180910390f35b610436611cfa565b6040516104439190612c16565b60405180910390f35b610454611d00565b6040516104619190613085565b60405180910390f35b610472611d24565b005b61048e60048036038101906104899190612ba4565b612052565b005b6104aa60048036038101906104a59190612f7e565b612149565b6040516104b79190612c16565b60405180910390f35b6104da60048036038101906104d59190612ba4565b61217a565b6040516104ef99989796959493929190613196565b60405180910390f35b610512600480360381019061050d9190612ba4565b6122b7565b005b61051c612497565b6040516105299190612f63565b60405180910390f35b61054c60048036038101906105479190612c8f565b6124bd565b60405161055d959493929190612fbe565b60405180910390f35b600d6020528060005260406000206000915054906101000a900460ff1681565b60085481565b600360009054906101000a900473ffffffffffffffffffffffffffffffffffffffff1673ffffffffffffffffffffffffffffffffffffffff163373ffffffffffffffffffffffffffffffffffffffff161461061c576040517f08c379a000000000000000000000000000000000000000000000000000000000815260040161061390613276565b60405180910390fd5b600e60008273ffffffffffffffffffffffffffffffffffffffff1673ffffffffffffffffffffffffffffffffffffffff16815260200190815260200160002060009054906101000a900460ff166106a8576040517f08c379a000000000000000000000000000000000000000000000000000000000815260040161069f906132e2565b60405180910390fd5b6000600e60008373ffffffffffffffffffffffffffffffffffffffff1673ffffffffffffffffffffffffffffffffffffffff16815260200190815260200160002060006101000a81548160ff02191690831515021790555050565b60065481565b600360009054906101000a900473ffffffffffffffffffffffffffffffffffffffff1673ffffffffffffffffffffffffffffffffffffffff163373ffffffffffffffffffffffffffffffffffffffff1614610799576040517f08c379a000000000000000000000000000000000000000000000000000000000815260040161079090613276565b60405180910390fd5b600081116107dc576040517f08c379a00000000000000000000000000000000000000000000000000000000081526004016107d39061334e565b60405180910390fd5b670de0b6b3a7640000816107f0919061339d565b60068190555050565b60008073ffffffffffffffffffffffffffffffffffffffff168373ffffffffffffffffffffffffffffffffffffffff1603610869576040517f08c379a00000000000000000000000000000000000000000000000000000000081526004016108609061342b565b60405180910390fd5b8273ffffffffffffffffffffffffffffffffffffffff16600960008573ffffffffffffffffffffffffffffffffffffffff1673ffffffffffffffffffffffffffffffffffffffff16815260200190815260200160002060000160009054906101000a900473ffffffffffffffffffffffffffffffffffffffff1673ffffffffffffffffffffffffffffffffffffffff1614610939576040517f08c379a000000000000000000000000000000000000000000000000000000000815260040161093090613497565b60405180910390fd5b8273ffffffffffffffffffffffffffffffffffffffff163373ffffffffffffffffffffffffffffffffffffffff16036109a7576040517f08c379a000000000000000000000000000000000000000000000000000000000815260040161099e90613503565b60405180910390fd5b60008251116109eb576040517f08c379a00000000000000000000000000000000000000000000000000000000081526004016109e29061356f565b60405180910390fd5b600080600160009054906101000a900473ffffffffffffffffffffffffffffffffffffffff1673ffffffffffffffffffffffffffffffffffffffff166370a08231336040518263ffffffff1660e01b8152600401610a499190612f63565b602060405180830381865afa158015610a66573d6000803e3d6000fd5b505050506040513d601f19601f82011682018060405250810190610a8a91906135a4565b11905080610c5557600654600260009054906101000a900473ffffffffffffffffffffffffffffffffffffffff1673ffffffffffffffffffffffffffffffffffffffff166370a08231336040518263ffffffff1660e01b8152600401610af09190612f63565b602060405180830381865afa158015610b0d573d6000803e3d6000fd5b505050506040513d601f19601f82011682018060405250810190610b3191906135a4565b1015610b72576040517f08c379a0000000000000000000000000000000000000000000000000000000008152600401610b699061361d565b60405180910390fd5b600654600260009054906101000a900473ffffffffffffffffffffffffffffffffffffffff1673ffffffffffffffffffffffffffffffffffffffff1663dd62ed3e33306040518363ffffffff1660e01b8152600401610bd292919061363d565b602060405180830381865afa158015610bef573d6000803e3d6000fd5b505050506040513d601f19601f82011682018060405250810190610c1391906135a4565b1015610c54576040517f08c379a0000000000000000000000000000000000000000000000000000000008152600401610c4b906136b2565b60405180910390fd5b5b60056000815480929190610c68906136d2565b9190505550600060055490506040518061012001604052808281526020018673ffffffffffffffffffffffffffffffffffffffff1681526020013373ffffffffffffffffffffffffffffffffffffffff168152602001600654815260200160006003811115610cda57610cd96130a0565b5b815260200160001515815260200160001515815260200142815260200185815250600a60008381526020019081526020016000206000820151816000015560208201518160010160006101000a81548173ffffffffffffffffffffffffffffffffffffffff021916908373ffffffffffffffffffffffffffffffffffffffff16021790555060408201518160020160006101000a81548173ffffffffffffffffffffffffffffffffffffffff021916908373ffffffffffffffffffffffffffffffffffffffff1602179055506060820151816003015560808201518160040160006101000a81548160ff02191690836003811115610ddb57610dda6130a0565b5b021790555060a08201518160040160016101000a81548160ff02191690831515021790555060c08201518160040160026101000a81548160ff02191690831515021790555060e08201518160050155610100820151816006019081610e40919061391c565b50905050600c60003373ffffffffffffffffffffffffffffffffffffffff1673ffffffffffffffffffffffffffffffffffffffff168152602001908152602001600020819080600181540180825580915050600190039060005260206000200160009091909190915055600b60008673ffffffffffffffffffffffffffffffffffffffff1673ffffffffffffffffffffffffffffffffffffffff1681526020019081526020016000208190806001815401808255809150506001900390600052602060002001600090919091909150558473ffffffffffffffffffffffffffffffffffffffff163373ffffffffffffffffffffffffffffffffffffffff16827f021c7ae53b27c0a9eebe556e762763125686cb060912da1e69e5aa0fd6455f5960065488604051610f729291906139ee565b60405180910390a4809250505092915050565b600260009054906101000a900473ffffffffffffffffffffffffffffffffffffffff1681565b600e6020528060005260406000206000915054906101000a900460ff1681565b6000600554905090565b600160009054906101000a900473ffffffffffffffffffffffffffffffffffffffff1681565b600360009054906101000a900473ffffffffffffffffffffffffffffffffffffffff1673ffffffffffffffffffffffffffffffffffffffff163373ffffffffffffffffffffffffffffffffffffffff161461108b576040517f08c379a000000000000000000000000000000000000000000000000000000000815260040161108290613276565b60405180910390fd5b6000811180156110a957506064600754826110a69190613a1e565b11155b6110e8576040517f08c379a00000000000000000000000000000000000000000000000000000000081526004016110df9061334e565b60405180910390fd5b8060088190555050565b600360009054906101000a900473ffffffffffffffffffffffffffffffffffffffff1673ffffffffffffffffffffffffffffffffffffffff163373ffffffffffffffffffffffffffffffffffffffff1614611182576040517f08c379a000000000000000000000000000000000000000000000000000000000815260040161117990613276565b60405180910390fd5b600073ffffffffffffffffffffffffffffffffffffffff168173ffffffffffffffffffffffffffffffffffffffff16036111f1576040517f08c379a00000000000000000000000000000000000000000000000000000000081526004016111e89061334e565b60405180910390fd5b6001600e60008373ffffffffffffffffffffffffffffffffffffffff1673ffffffffffffffffffffffffffffffffffffffff16815260200190815260200160002060006101000a81548160ff02191690831515021790555050565b60008111801561125d575060058111155b61129c576040517f08c379a000000000000000000000000000000000000000000000000000000000815260040161129390613a9e565b60405180910390fd5b6000600a600084815260200190815260200160002060405180610120016040529081600082015481526020016001820160009054906101000a900473ffffffffffffffffffffffffffffffffffffffff1673ffffffffffffffffffffffffffffffffffffffff1673ffffffffffffffffffffffffffffffffffffffff1681526020016002820160009054906101000a900473ffffffffffffffffffffffffffffffffffffffff1673ffffffffffffffffffffffffffffffffffffffff1673ffffffffffffffffffffffffffffffffffffffff168152602001600382015481526020016004820160009054906101000a900460ff1660038111156113a2576113a16130a0565b5b60038111156113b4576113b36130a0565b5b81526020016004820160019054906101000a900460ff161515151581526020016004820160029054906101000a900460ff161515151581526020016005820154815260200160068201805461140890613749565b80601f016020809104026020016040519081016040528092919081815260200182805461143490613749565b80156114815780601f1061145657610100808354040283529160200191611481565b820191906000526020600020905b81548152906001019060200180831161146457829003601f168201915b505050505081525050905060038081111561149f5761149e6130a0565b5b816080015160038111156114b6576114b56130a0565b5b146114f6576040517f08c379a00000000000000000000000000000000000000000000000000000000081526004016114ed90613b0a565b60405180910390fd5b806040015173ffffffffffffffffffffffffffffffffffffffff163373ffffffffffffffffffffffffffffffffffffffff1614611568576040517f08c379a000000000000000000000000000000000000000000000000000000000815260040161155f90613b76565b60405180910390fd5b600060096000836020015173ffffffffffffffffffffffffffffffffffffffff1673ffffffffffffffffffffffffffffffffffffffff16815260200190815260200160002090508060030160008154809291906115c4906136d2565b9190505550806003015483600183600301546115e09190613b96565b83600101546115ef919061339d565b6115f99190613a1e565b6116039190613bf9565b8160010181905550816020015173ffffffffffffffffffffffffffffffffffffffff163373ffffffffffffffffffffffffffffffffffffffff167fdcba9448b55b807611f7e3ece24acdc6afaec1d8c5a16f3e70c571758f6066548560405161166c9190612c16565b60405180910390a350505050565b6000600a60008381526020019081526020016000209050600060038111156116a5576116a46130a0565b5b8160040160009054906101000a900460ff1660038111156116c9576116c86130a0565b5b14611709576040517f08c379a000000000000000000000000000000000000000000000000000000000815260040161170090613c76565b60405180910390fd5b8060010160009054906101000a900473ffffffffffffffffffffffffffffffffffffffff1673ffffffffffffffffffffffffffffffffffffffff163373ffffffffffffffffffffffffffffffffffffffff161461179b576040517f08c379a000000000000000000000000000000000000000000000000000000000815260040161179290613ce2565b60405180910390fd5b60028160040160006101000a81548160ff021916908360038111156117c3576117c26130a0565b5b02179055506117d182612513565b817f4c1d0289ec3143271632b73e9d6d90be1a668f3da62d769a1d8abd65742cc4be60405160405180910390a25050565b600360009054906101000a900473ffffffffffffffffffffffffffffffffffffffff1681565b600b602052816000526040600020818154811061184457600080fd5b90600052602060002001600091509150505481565b60008060008060008073ffffffffffffffffffffffffffffffffffffffff16600960008873ffffffffffffffffffffffffffffffffffffffff1673ffffffffffffffffffffffffffffffffffffffff16815260200190815260200160002060000160009054906101000a900473ffffffffffffffffffffffffffffffffffffffff1673ffffffffffffffffffffffffffffffffffffffff1603611931576040517f08c379a000000000000000000000000000000000000000000000000000000000815260040161192890613497565b60405180910390fd5b6000600960008873ffffffffffffffffffffffffffffffffffffffff1673ffffffffffffffffffffffffffffffffffffffff1681526020019081526020016000206040518060a00160405290816000820160009054906101000a900473ffffffffffffffffffffffffffffffffffffffff1673ffffffffffffffffffffffffffffffffffffffff1673ffffffffffffffffffffffffffffffffffffffff168152602001600182015481526020016002820154815260200160038201548152602001600482015481525050905080600001518160200151826040015183606001518460800151955095509550955095505091939590929450565b600080600a600086815260200190815260200160002060405180610120016040529081600082015481526020016001820160009054906101000a900473ffffffffffffffffffffffffffffffffffffffff1673ffffffffffffffffffffffffffffffffffffffff1673ffffffffffffffffffffffffffffffffffffffff1681526020016002820160009054906101000a900473ffffffffffffffffffffffffffffffffffffffff1673ffffffffffffffffffffffffffffffffffffffff1673ffffffffffffffffffffffffffffffffffffffff168152602001600382015481526020016004820160009054906101000a900460ff166003811115611b3157611b306130a0565b5b6003811115611b4357611b426130a0565b5b81526020016004820160019054906101000a900460ff161515151581526020016004820160029054906101000a900460ff1615151515815260200160058201548152602001600682018054611b9790613749565b80601f0160208091040260200160405190810160405280929190818152602001828054611bc390613749565b8015611c105780601f10611be557610100808354040283529160200191611c10565b820191906000526020600020905b815481529060010190602001808311611bf357829003601f168201915b50505050508152505090508373ffffffffffffffffffffffffffffffffffffffff16816020015173ffffffffffffffffffffffffffffffffffffffff16148015611c8957508273ffffffffffffffffffffffffffffffffffffffff16816040015173ffffffffffffffffffffffffffffffffffffffff16145b8015611cf0575060006003811115611ca457611ca36130a0565b5b81608001516003811115611cbb57611cba6130a0565b5b1480611cef575060016003811115611cd657611cd56130a0565b5b81608001516003811115611ced57611cec6130a0565b5b145b5b9150509392505050565b60075481565b60008054906101000a900473ffffffffffffffffffffffffffffffffffffffff1681565b60008060009054906101000a900473ffffffffffffffffffffffffffffffffffffffff1673ffffffffffffffffffffffffffffffffffffffff166370a08231336040518263ffffffff1660e01b8152600401611d809190612f63565b602060405180830381865afa158015611d9d573d6000803e3d6000fd5b505050506040513d601f19601f82011682018060405250810190611dc191906135a4565b11611e01576040517f08c379a0000000000000000000000000000000000000000000000000000000008152600401611df890613d4e565b60405180910390fd5b600073ffffffffffffffffffffffffffffffffffffffff16600960003373ffffffffffffffffffffffffffffffffffffffff1673ffffffffffffffffffffffffffffffffffffffff16815260200190815260200160002060000160009054906101000a900473ffffffffffffffffffffffffffffffffffffffff1673ffffffffffffffffffffffffffffffffffffffff1614611ed2576040517f08c379a0000000000000000000000000000000000000000000000000000000008152600401611ec990613dba565b60405180910390fd5b6040518060a001604052803373ffffffffffffffffffffffffffffffffffffffff1681526020016000815260200160008152602001600081526020016000815250600960003373ffffffffffffffffffffffffffffffffffffffff1673ffffffffffffffffffffffffffffffffffffffff16815260200190815260200160002060008201518160000160006101000a81548173ffffffffffffffffffffffffffffffffffffffff021916908373ffffffffffffffffffffffffffffffffffffffff160217905550602082015181600101556040820151816002015560608201518160030155608082015181600401559050503373ffffffffffffffffffffffffffffffffffffffff167fe45ba5faf245422bdbf422975b1bee8b508e2ba5232ea325a12b14ead9e78b97600960003373ffffffffffffffffffffffffffffffffffffffff1673ffffffffffffffffffffffffffffffffffffffff1681526020019081526020016000206040516120489190613f04565b60405180910390a2565b600360009054906101000a900473ffffffffffffffffffffffffffffffffffffffff1673ffffffffffffffffffffffffffffffffffffffff163373ffffffffffffffffffffffffffffffffffffffff16146120e2576040517f08c379a00000000000000000000000000000000000000000000000000000000081526004016120d990613276565b60405180910390fd5b60008111801561210057506064600854826120fd9190613a1e565b11155b61213f576040517f08c379a00000000000000000000000000000000000000000000000000000000081526004016121369061334e565b60405180910390fd5b8060078190555050565b600c602052816000526040600020818154811061216557600080fd5b90600052602060002001600091509150505481565b600a6020528060005260406000206000915090508060000154908060010160009054906101000a900473ffffffffffffffffffffffffffffffffffffffff16908060020160009054906101000a900473ffffffffffffffffffffffffffffffffffffffff16908060030154908060040160009054906101000a900460ff16908060040160019054906101000a900460ff16908060040160029054906101000a900460ff169080600501549080600601805461223490613749565b80601f016020809104026020016040519081016040528092919081815260200182805461226090613749565b80156122ad5780601f10612282576101008083540402835291602001916122ad565b820191906000526020600020905b81548152906001019060200180831161229057829003601f168201915b5050505050905089565b6000600a60008381526020019081526020016000209050600060038111156122e2576122e16130a0565b5b8160040160009054906101000a900460ff166003811115612306576123056130a0565b5b14612346576040517f08c379a000000000000000000000000000000000000000000000000000000000815260040161233d90613c76565b60405180910390fd5b8060010160009054906101000a900473ffffffffffffffffffffffffffffffffffffffff1673ffffffffffffffffffffffffffffffffffffffff163373ffffffffffffffffffffffffffffffffffffffff16146123d8576040517f08c379a00000000000000000000000000000000000000000000000000000000081526004016123cf90613ce2565b60405180910390fd5b60018160040160006101000a81548160ff02191690836003811115612400576123ff6130a0565b5b0217905550600960003373ffffffffffffffffffffffffffffffffffffffff1673ffffffffffffffffffffffffffffffffffffffff1681526020019081526020016000206002016000815480929190612458906136d2565b919050555061246682612739565b817f0cf6a9aa54f384f031fbf39664b2717be6a551ab68e1e6feba1eaa6b4ef7024d60405160405180910390a25050565b600460009054906101000a900473ffffffffffffffffffffffffffffffffffffffff1681565b60096020528060005260406000206000915090508060000160009054906101000a900473ffffffffffffffffffffffffffffffffffffffff16908060010154908060020154908060030154908060040154905085565b6000600a60008381526020019081526020016000209050600d600083815260200190815260200160002060009054906101000a900460ff161561258b576040517f08c379a000000000000000000000000000000000000000000000000000000000815260040161258290613f6b565b60405180910390fd5b600260009054906101000a900473ffffffffffffffffffffffffffffffffffffffff1673ffffffffffffffffffffffffffffffffffffffff1663a9059cbb8260020160009054906101000a900473ffffffffffffffffffffffffffffffffffffffff1683600301546040518363ffffffff1660e01b8152600401612610929190613f8b565b6020604051808303816000875af115801561262f573d6000803e3d6000fd5b505050506040513d601f19601f820116820180604052508101906126539190613fe0565b612692576040517f08c379a000000000000000000000000000000000000000000000000000000000815260040161268990614059565b60405180910390fd5b6001600d600084815260200190815260200160002060006101000a81548160ff0219169083151502179055508060020160009054906101000a900473ffffffffffffffffffffffffffffffffffffffff1673ffffffffffffffffffffffffffffffffffffffff16827f7a482fdeb6bc9a1376f597068a214a7a39472bb2eff1b8cad21ba04f49ddca1b836003015460405161272d9190612c16565b60405180910390a35050565b6000600a60008381526020019081526020016000209050600d600083815260200190815260200160002060009054906101000a900460ff16156127b1576040517f08c379a00000000000000000000000000000000000000000000000000000000081526004016127a890613f6b565b60405180910390fd5b6000606460075483600301546127c7919061339d565b6127d19190613bf9565b90506000606460085484600301546127e9919061339d565b6127f39190613bf9565b9050600260009054906101000a900473ffffffffffffffffffffffffffffffffffffffff1673ffffffffffffffffffffffffffffffffffffffff1663a9059cbb600460009054906101000a900473ffffffffffffffffffffffffffffffffffffffff16846040518363ffffffff1660e01b8152600401612874929190613f8b565b6020604051808303816000875af1158015612893573d6000803e3d6000fd5b505050506040513d601f19601f820116820180604052508101906128b79190613fe0565b6128f6576040517f08c379a00000000000000000000000000000000000000000000000000000000081526004016128ed906140c5565b60405180910390fd5b600260009054906101000a900473ffffffffffffffffffffffffffffffffffffffff1673ffffffffffffffffffffffffffffffffffffffff1663a9059cbb8460010160009054906101000a900473ffffffffffffffffffffffffffffffffffffffff16836040518363ffffffff1660e01b8152600401612977929190613f8b565b6020604051808303816000875af1158015612996573d6000803e3d6000fd5b505050506040513d601f19601f820116820180604052508101906129ba9190613fe0565b6129f9576040517f08c379a00000000000000000000000000000000000000000000000000000000081526004016129f090614131565b60405180910390fd5b80600960008560010160009054906101000a900473ffffffffffffffffffffffffffffffffffffffff1673ffffffffffffffffffffffffffffffffffffffff1673ffffffffffffffffffffffffffffffffffffffff1681526020019081526020016000206004016000828254612a6f9190613a1e565b925050819055506001600d600086815260200190815260200160002060006101000a81548160ff0219169083151502179055508260010160009054906101000a900473ffffffffffffffffffffffffffffffffffffffff1673ffffffffffffffffffffffffffffffffffffffff168360020160009054906101000a900473ffffffffffffffffffffffffffffffffffffffff1673ffffffffffffffffffffffffffffffffffffffff16857f37a13dcf7266fe3681e46ca252ea4f79e8a76da88ae9446f99242fbc014a6c398660030154604051612b4c9190612c16565b60405180910390a450505050565b6000604051905090565b600080fd5b600080fd5b6000819050919050565b612b8181612b6e565b8114612b8c57600080fd5b50565b600081359050612b9e81612b78565b92915050565b600060208284031215612bba57612bb9612b64565b5b6000612bc884828501612b8f565b91505092915050565b60008115159050919050565b612be681612bd1565b82525050565b6000602082019050612c016000830184612bdd565b92915050565b612c1081612b6e565b82525050565b6000602082019050612c2b6000830184612c07565b92915050565b600073ffffffffffffffffffffffffffffffffffffffff82169050919050565b6000612c5c82612c31565b9050919050565b612c6c81612c51565b8114612c7757600080fd5b50565b600081359050612c8981612c63565b92915050565b600060208284031215612ca557612ca4612b64565b5b6000612cb384828501612c7a565b91505092915050565b600080fd5b600080fd5b6000601f19601f8301169050919050565b7f4e487b7100000000000000000000000000000000000000000000000000000000600052604160045260246000fd5b612d0f82612cc6565b810181811067ffffffffffffffff82111715612d2e57612d2d612cd7565b5b80604052505050565b6000612d41612b5a565b9050612d4d8282612d06565b919050565b600067ffffffffffffffff821115612d6d57612d6c612cd7565b5b612d7682612cc6565b9050602081019050919050565b82818337600083830152505050565b6000612da5612da084612d52565b612d37565b905082815260208101848484011115612dc157612dc0612cc1565b5b612dcc848285612d83565b509392505050565b600082601f830112612de957612de8612cbc565b5b8135612df9848260208601612d92565b91505092915050565b60008060408385031215612e1957612e18612b64565b5b6000612e2785828601612c7a565b925050602083013567ffffffffffffffff811115612e4857612e47612b69565b5b612e5485828601612dd4565b9150509250929050565b6000819050919050565b6000612e83612e7e612e7984612c31565b612e5e565b612c31565b9050919050565b6000612e9582612e68565b9050919050565b6000612ea782612e8a565b9050919050565b612eb781612e9c565b82525050565b6000602082019050612ed26000830184612eae565b92915050565b6000612ee382612e8a565b9050919050565b612ef381612ed8565b82525050565b6000602082019050612f0e6000830184612eea565b92915050565b60008060408385031215612f2b57612f2a612b64565b5b6000612f3985828601612b8f565b9250506020612f4a85828601612b8f565b9150509250929050565b612f5d81612c51565b82525050565b6000602082019050612f786000830184612f54565b92915050565b60008060408385031215612f9557612f94612b64565b5b6000612fa385828601612c7a565b9250506020612fb485828601612b8f565b9150509250929050565b600060a082019050612fd36000830188612f54565b612fe06020830187612c07565b612fed6040830186612c07565b612ffa6060830185612c07565b6130076080830184612c07565b9695505050505050565b60008060006060848603121561302a57613029612b64565b5b600061303886828701612b8f565b935050602061304986828701612c7a565b925050604061305a86828701612c7a565b9150509250925092565b600061306f82612e8a565b9050919050565b61307f81613064565b82525050565b600060208201905061309a6000830184613076565b92915050565b7f4e487b7100000000000000000000000000000000000000000000000000000000600052602160045260246000fd5b600481106130e0576130df6130a0565b5b50565b60008190506130f1826130cf565b919050565b6000613101826130e3565b9050919050565b613111816130f6565b82525050565b600081519050919050565b600082825260208201905092915050565b60005b83811015613151578082015181840152602081019050613136565b60008484015250505050565b600061316882613117565b6131728185613122565b9350613182818560208601613133565b61318b81612cc6565b840191505092915050565b6000610120820190506131ac600083018c612c07565b6131b9602083018b612f54565b6131c6604083018a612f54565b6131d36060830189612c07565b6131e06080830188613108565b6131ed60a0830187612bdd565b6131fa60c0830186612bdd565b61320760e0830185612c07565b81810361010083015261321a818461315d565b90509a9950505050505050505050565b7f4e6f74206f776e65720000000000000000000000000000000000000000000000600082015250565b6000613260600983613122565b915061326b8261322a565b602082019050919050565b6000602082019050818103600083015261328f81613253565b9050919050565b7f4e6f742061646d696e0000000000000000000000000000000000000000000000600082015250565b60006132cc600983613122565b91506132d782613296565b602082019050919050565b600060208201905081810360008301526132fb816132bf565b9050919050565b7f496e76616c696400000000000000000000000000000000000000000000000000600082015250565b6000613338600783613122565b915061334382613302565b602082019050919050565b600060208201905081810360008301526133678161332b565b9050919050565b7f4e487b7100000000000000000000000000000000000000000000000000000000600052601160045260246000fd5b60006133a882612b6e565b91506133b383612b6e565b92508282026133c181612b6e565b915082820484148315176133d8576133d761336e565b5b5092915050565b7f496e76616c696420616464726573730000000000000000000000000000000000600082015250565b6000613415600f83613122565b9150613420826133df565b602082019050919050565b6000602082019050818103600083015261344481613408565b9050919050565b7f4e6f742072656769737465726564000000000000000000000000000000000000600082015250565b6000613481600e83613122565b915061348c8261344b565b602082019050919050565b600060208201905081810360008301526134b081613474565b9050919050565b7f53656c662d63617365206e6f7420616c6c6f7765640000000000000000000000600082015250565b60006134ed601583613122565b91506134f8826134b7565b602082019050919050565b6000602082019050818103600083015261351c816134e0565b9050919050565b7f4465736372697074696f6e207265717569726564000000000000000000000000600082015250565b6000613559601483613122565b915061356482613523565b602082019050919050565b600060208201905081810360008301526135888161354c565b9050919050565b60008151905061359e81612b78565b92915050565b6000602082840312156135ba576135b9612b64565b5b60006135c88482850161358f565b91505092915050565b7f496e73756666696369656e7420746f6b656e2062616c616e6365000000000000600082015250565b6000613607601a83613122565b9150613612826135d1565b602082019050919050565b60006020820190508181036000830152613636816135fa565b9050919050565b60006040820190506136526000830185612f54565b61365f6020830184612f54565b9392505050565b7f496e73756666696369656e7420746f6b656e20616c6c6f77616e636500000000600082015250565b600061369c601c83613122565b91506136a782613666565b602082019050919050565b600060208201905081810360008301526136cb8161368f565b9050919050565b60006136dd82612b6e565b91507fffffffffffffffffffffffffffffffffffffffffffffffffffffffffffffffff820361370f5761370e61336e565b5b600182019050919050565b7f4e487b7100000000000000000000000000000000000000000000000000000000600052602260045260246000fd5b6000600282049050600182168061376157607f821691505b6020821081036137745761377361371a565b5b50919050565b60008190508160005260206000209050919050565b60006020601f8301049050919050565b600082821b905092915050565b6000600883026137dc7fffffffffffffffffffffffffffffffffffffffffffffffffffffffffffffffff8261379f565b6137e6868361379f565b95508019841693508086168417925050509392505050565b600061381961381461380f84612b6e565b612e5e565b612b6e565b9050919050565b6000819050919050565b613833836137fe565b61384761383f82613820565b8484546137ac565b825550505050565b600090565b61385c61384f565b61386781848461382a565b505050565b5b8181101561388b57613880600082613854565b60018101905061386d565b5050565b601f8211156138d0576138a18161377a565b6138aa8461378f565b810160208510156138b9578190505b6138cd6138c58561378f565b83018261386c565b50505b505050565b600082821c905092915050565b60006138f3600019846008026138d5565b1980831691505092915050565b600061390c83836138e2565b9150826002028217905092915050565b61392582613117565b67ffffffffffffffff81111561393e5761393d612cd7565b5b6139488254613749565b61395382828561388f565b600060209050601f8311600181146139865760008415613974578287015190505b61397e8582613900565b8655506139e6565b601f1984166139948661377a565b60005b828110156139bc57848901518255600182019150602085019450602081019050613997565b868310156139d957848901516139d5601f8916826138e2565b8355505b6001600288020188555050505b505050505050565b6000604082019050613a036000830185612c07565b8181036020830152613a15818461315d565b90509392505050565b6000613a2982612b6e565b9150613a3483612b6e565b9250828201905080821115613a4c57613a4b61336e565b5b92915050565b7f496e76616c696420726174696e67000000000000000000000000000000000000600082015250565b6000613a88600e83613122565b9150613a9382613a52565b602082019050919050565b60006020820190508181036000830152613ab781613a7b565b9050919050565b7f43617365206e6f7420636c6f7365640000000000000000000000000000000000600082015250565b6000613af4600f83613122565b9150613aff82613abe565b602082019050919050565b60006020820190508181036000830152613b2381613ae7565b9050919050565b7f4f6e6c792070617469656e742063616e20726174650000000000000000000000600082015250565b6000613b60601583613122565b9150613b6b82613b2a565b602082019050919050565b60006020820190508181036000830152613b8f81613b53565b9050919050565b6000613ba182612b6e565b9150613bac83612b6e565b9250828203905081811115613bc457613bc361336e565b5b92915050565b7f4e487b7100000000000000000000000000000000000000000000000000000000600052601260045260246000fd5b6000613c0482612b6e565b9150613c0f83612b6e565b925082613c1f57613c1e613bca565b5b828204905092915050565b7f4e6f742070656e64696e67000000000000000000000000000000000000000000600082015250565b6000613c60600b83613122565b9150613c6b82613c2a565b602082019050919050565b60006020820190508181036000830152613c8f81613c53565b9050919050565b7f556e617574686f72697a65640000000000000000000000000000000000000000600082015250565b6000613ccc600c83613122565b9150613cd782613c96565b602082019050919050565b60006020820190508181036000830152613cfb81613cbf565b9050919050565b7f4e465420726571756972656420746f2072656769737465720000000000000000600082015250565b6000613d38601883613122565b9150613d4382613d02565b602082019050919050565b60006020820190508181036000830152613d6781613d2b565b9050919050565b7f416c726561647920726567697374657265640000000000000000000000000000600082015250565b6000613da4601283613122565b9150613daf82613d6e565b602082019050919050565b60006020820190508181036000830152613dd381613d97565b9050919050565b60008160001c9050919050565b600073ffffffffffffffffffffffffffffffffffffffff82169050919050565b6000613e1a613e1583613dda565b613de7565b9050919050565b613e2a81612c51565b82525050565b6000819050919050565b6000613e4d613e4883613dda565b613e30565b9050919050565b613e5d81612b6e565b82525050565b60a082016000808301549050613e7881613e07565b613e856000860182613e21565b5060018301549050613e9681613e3a565b613ea36020860182613e54565b5060028301549050613eb481613e3a565b613ec16040860182613e54565b5060038301549050613ed281613e3a565b613edf6060860182613e54565b5060048301549050613ef081613e3a565b613efd6080860182613e54565b5050505050565b600060a082019050613f196000830184613e63565b92915050565b7f416c726561647920706169640000000000000000000000000000000000000000600082015250565b6000613f55600c83613122565b9150613f6082613f1f565b602082019050919050565b60006020820190508181036000830152613f8481613f48565b9050919050565b6000604082019050613fa06000830185612f54565b613fad6020830184612c07565b9392505050565b613fbd81612bd1565b8114613fc857600080fd5b50565b600081519050613fda81613fb4565b92915050565b600060208284031215613ff657613ff5612b64565b5b600061400484828501613fcb565b91505092915050565b7f526566756e64206661696c656400000000000000000000000000000000000000600082015250565b6000614043600d83613122565b915061404e8261400d565b602082019050919050565b6000602082019050818103600083015261407281614036565b9050919050565b7f506c6174666f726d20666565206661696c656400000000000000000000000000600082015250565b60006140af601383613122565b91506140ba82614079565b602082019050919050565b600060208201905081810360008301526140de816140a2565b9050919050565b7f416e6f50726f207061796d656e74206661696c65640000000000000000000000600082015250565b600061411b601583613122565b9150614126826140e5565b602082019050919050565b6000602082019050818103600083015261414a8161410e565b905091905056fea2646970667358221220a58786382c2852a6ef8ecc1c8b9b66c10ee850c38d9edf15926a0bd2786182fd64736f6c634300081c0033",
  "linkReferences": {},
  "deployedLinkReferences": {}
}