{
  "_format": "hh-sol-artifact-1",
  "contractName": "AnoProRewardPool",
  "sourceName": "contracts/AnoProRewardPool.sol",
  "abi": [
    {
      "inputs": [
        {
          "internalType": "address",
          "name": "_anoPassNFT",
          "type": "address"
        },
        {
          "internalType": "address",
          "name": "_verifiedAnoProNFT",
          "type": "address"
        },
        {
          "internalType": "address",
          "name": "_anocareContract",
          "type": "address"
        }
      ],
      "stateMutability": "nonpayable",
      "type": "constructor"
    },
    {
      "anonymous": false,
      "inputs": [
        {
          "indexed": true,
          "internalType": "address",
          "name": "anoPro",
          "type": "address"
        },
        {
          "indexed": true,
          "internalType": "address",
          "name": "premiumUser",
          "type": "address"
        },
        {
          "indexed": false,
          "internalType": "uint256",
          "name": "reward",
          "type": "uint256"
        }
      ],
      "name": "PremiumConsultRecorded",
      "type": "event"
    },
    {
      "anonymous": false,
      "inputs": [
        {
          "indexed": true,
          "internalType": "address",
          "name": "anoPro",
          "type": "address"
        },
        {
          "indexed": false,
          "internalType": "uint256",
          "name": "amount",
          "type": "uint256"
        }
      ],
      "name": "RewardClaimed",
      "type": "event"
    },
    {
      "anonymous": false,
      "inputs": [
        {
          "indexed": true,
          "internalType": "address",
          "name": "from",
          "type": "address"
        },
        {
          "indexed": false,
          "internalType": "uint256",
          "name": "amount",
          "type": "uint256"
        }
      ],
      "name": "RewardDeposited",
      "type": "event"
    },
    {
      "inputs": [],
      "name": "anoPassNFT",
      "outputs": [
        {
          "internalType": "contract IAnoPassNFT",
          "name": "",
          "type": "address"
        }
      ],
      "stateMutability": "view",
      "type": "function"
    },
    {
      "inputs": [
        {
          "internalType": "address",
          "name": "",
          "type": "address"
        }
      ],
      "name": "anoProPremiumRewards",
      "outputs": [
        {
          "internalType": "uint256",
          "name": "",
          "type": "uint256"
        }
      ],
      "stateMutability": "view",
      "type": "function"
    },
    {
      "inputs": [],
      "name": "anocareContract",
      "outputs": [
        {
          "internalType": "contract IAnocareContract",
          "name": "",
          "type": "address"
        }
      ],
      "stateMutability": "view",
      "type": "function"
    },
    {
      "inputs": [],
      "name": "claimReward",
      "outputs": [],
      "stateMutability": "nonpayable",
      "type": "function"
    },
    {
      "inputs": [],
      "name": "owner",
      "outputs": [
        {
          "internalType": "address",
          "name": "",
          "type": "address"
        }
      ],
      "stateMutability": "view",
      "type": "function"
    },
    {
      "inputs": [
        {
          "internalType": "uint256",
          "name": "caseId",
          "type": "uint256"
        },
        {
          "internalType": "address",
          "name": "anoPro",
          "type": "address"
        },
        {
          "internalType": "address",
          "name": "premiumUser",
          "type": "address"
        }
      ],
      "name": "recordConsult",
      "outputs": [],
      "stateMutability": "nonpayable",
      "type": "function"
    },
    {
      "inputs": [],
      "name": "totalDeposited",
      "outputs": [
        {
          "internalType": "uint256",
          "name": "",
          "type": "uint256"
        }
      ],
      "stateMutability": "view",
      "type": "function"
    },
    {
      "inputs": [],
      "name": "verifiedAnoProNFT",
      "outputs": [
        {
          "internalType": "contract IVerifiedAnoProNFT",
          "name": "",
          "type": "address"
        }
      ],
      "stateMutability": "view",
      "type": "function"
    },
    {
      "inputs": [
        {
          "internalType": "address",
          "name": "to",
          "type": "address"
        },
        {
          "internalType": "uint256",
          "name": "amount",
          "type": "uint256"
        }
      ],
      "name": "withdrawUnused",
      "outputs": [],
      "stateMutability": "nonpayable",
      "type": "function"
    },
    {
      "stateMutability": "payable",
      "type": "receive"
    }
  ],
  "bytecode": "0x608060405234801561001057600080fd5b5060405161182e38038061182e833981810160405281019061003291906102ed565b600073ffffffffffffffffffffffffffffffffffffffff168373ffffffffffffffffffffffffffffffffffffffff16036100a1576040517f08c379a00000000000000000000000000000000000000000000000000000000081526004016100989061039d565b60405180910390fd5b600073ffffffffffffffffffffffffffffffffffffffff168273ffffffffffffffffffffffffffffffffffffffff1603610110576040517f08c379a000000000000000000000000000000000000000000000000000000000815260040161010790610409565b60405180910390fd5b600073ffffffffffffffffffffffffffffffffffffffff168173ffffffffffffffffffffffffffffffffffffffff160361017f576040517f08c379a000000000000000000000000000000000000000000000000000000000815260040161017690610475565b60405180910390fd5b336000806101000a81548173ffffffffffffffffffffffffffffffffffffffff021916908373ffffffffffffffffffffffffffffffffffffffff16021790555082600160006101000a81548173ffffffffffffffffffffffffffffffffffffffff021916908373ffffffffffffffffffffffffffffffffffffffff16021790555081600260006101000a81548173ffffffffffffffffffffffffffffffffffffffff021916908373ffffffffffffffffffffffffffffffffffffffff16021790555080600360006101000a81548173ffffffffffffffffffffffffffffffffffffffff021916908373ffffffffffffffffffffffffffffffffffffffff160217905550505050610495565b600080fd5b600073ffffffffffffffffffffffffffffffffffffffff82169050919050565b60006102ba8261028f565b9050919050565b6102ca816102af565b81146102d557600080fd5b50565b6000815190506102e7816102c1565b92915050565b6000806000606084860312156103065761030561028a565b5b6000610314868287016102d8565b9350506020610325868287016102d8565b9250506040610336868287016102d8565b9150509250925092565b600082825260208201905092915050565b7f496e76616c6964204e4654206164647265737300000000000000000000000000600082015250565b6000610387601383610340565b915061039282610351565b602082019050919050565b600060208201905081810360008301526103b68161037a565b9050919050565b7f496e76616c696420766572696669657220616464726573730000000000000000600082015250565b60006103f3601883610340565b91506103fe826103bd565b602082019050919050565b60006020820190508181036000830152610422816103e6565b9050919050565b7f496e76616c696420636f6e747261637420616464726573730000000000000000600082015250565b600061045f601883610340565b915061046a82610429565b602082019050919050565b6000602082019050818103600083015261048e81610452565b9050919050565b61138a806104a46000396000f3fe60806040526004361061008a5760003560e01c80639df052f2116100595780639df052f2146101a7578063b88a802f146101d0578063cff6a562146101e7578063f22264cc14610212578063ff50abdc1461024f576100f8565b806322e3d118146100fd57806364c5d91a146101265780638da5cb5b1461015157806399fbd79f1461017c576100f8565b366100f85734600460008282546100a19190610b9a565b925050819055503373ffffffffffffffffffffffffffffffffffffffff167f7dbc080e4530c8bcf265eb5c9a35ae096ca1eb607b7e802b96581ef4c5e1a703346040516100ee9190610bdd565b60405180910390a2005b600080fd5b34801561010957600080fd5b50610124600480360381019061011f9190610c87565b61027a565b005b34801561013257600080fd5b5061013b61070f565b6040516101489190610d39565b60405180910390f35b34801561015d57600080fd5b50610166610735565b6040516101739190610d63565b60405180910390f35b34801561018857600080fd5b50610191610759565b60405161019e9190610d9f565b60405180910390f35b3480156101b357600080fd5b506101ce60048036038101906101c99190610dba565b61077f565b005b3480156101dc57600080fd5b506101e561089b565b005b3480156101f357600080fd5b506101fc610b1d565b6040516102099190610e1b565b60405180910390f35b34801561021e57600080fd5b5061023960048036038101906102349190610e36565b610b43565b6040516102469190610bdd565b60405180910390f35b34801561025b57600080fd5b50610264610b5b565b6040516102719190610bdd565b60405180910390f35b6000600160009054906101000a900473ffffffffffffffffffffffffffffffffffffffff1673ffffffffffffffffffffffffffffffffffffffff166370a08231836040518263ffffffff1660e01b81526004016102d79190610d63565b602060405180830381865afa1580156102f4573d6000803e3d6000fd5b505050506040513d601f19601f820116820180604052508101906103189190610e78565b11610358576040517f08c379a000000000000000000000000000000000000000000000000000000000815260040161034f90610f02565b60405180910390fd5b600260009054906101000a900473ffffffffffffffffffffffffffffffffffffffff1673ffffffffffffffffffffffffffffffffffffffff1663b9209e33836040518263ffffffff1660e01b81526004016103b39190610d63565b602060405180830381865afa1580156103d0573d6000803e3d6000fd5b505050506040513d601f19601f820116820180604052508101906103f49190610f5a565b610433576040517f08c379a000000000000000000000000000000000000000000000000000000000815260040161042a90610fd3565b60405180910390fd5b600360009054906101000a900473ffffffffffffffffffffffffffffffffffffffff1673ffffffffffffffffffffffffffffffffffffffff1663b3fdcd4f8484846040518463ffffffff1660e01b815260040161049293929190610ff3565b602060405180830381865afa1580156104af573d6000803e3d6000fd5b505050506040513d601f19601f820116820180604052508101906104d39190610f5a565b610512576040517f08c379a000000000000000000000000000000000000000000000000000000000815260040161050990611076565b60405180910390fd5b60006064600360009054906101000a900473ffffffffffffffffffffffffffffffffffffffff1673ffffffffffffffffffffffffffffffffffffffff1663147179d86040518163ffffffff1660e01b8152600401602060405180830381865afa158015610583573d6000803e3d6000fd5b505050506040513d601f19601f820116820180604052508101906105a79190610e78565b600360009054906101000a900473ffffffffffffffffffffffffffffffffffffffff1673ffffffffffffffffffffffffffffffffffffffff166318f235446040518163ffffffff1660e01b8152600401602060405180830381865afa158015610614573d6000803e3d6000fd5b505050506040513d601f19601f820116820180604052508101906106389190610e78565b6106429190611096565b61064c9190611107565b905080600560008573ffffffffffffffffffffffffffffffffffffffff1673ffffffffffffffffffffffffffffffffffffffff168152602001908152602001600020600082825461069d9190610b9a565b925050819055508173ffffffffffffffffffffffffffffffffffffffff168373ffffffffffffffffffffffffffffffffffffffff167fcbb0602d3696feb4dac956774499c6e1a7750c620bc2a8e3f69d27b527a61265836040516107019190610bdd565b60405180910390a350505050565b600160009054906101000a900473ffffffffffffffffffffffffffffffffffffffff1681565b60008054906101000a900473ffffffffffffffffffffffffffffffffffffffff1681565b600360009054906101000a900473ffffffffffffffffffffffffffffffffffffffff1681565b60008054906101000a900473ffffffffffffffffffffffffffffffffffffffff1673ffffffffffffffffffffffffffffffffffffffff163373ffffffffffffffffffffffffffffffffffffffff161461080d576040517f08c379a000000000000000000000000000000000000000000000000000000000815260040161080490611184565b60405180910390fd5b80471015610850576040517f08c379a0000000000000000000000000000000000000000000000000000000008152600401610847906111f0565b60405180910390fd5b8173ffffffffffffffffffffffffffffffffffffffff166108fc829081150290604051600060405180830381858888f19350505050158015610896573d6000803e3d6000fd5b505050565b600260009054906101000a900473ffffffffffffffffffffffffffffffffffffffff1673ffffffffffffffffffffffffffffffffffffffff1663b9209e33336040518263ffffffff1660e01b81526004016108f69190610d63565b602060405180830381865afa158015610913573d6000803e3d6000fd5b505050506040513d601f19601f820116820180604052508101906109379190610f5a565b610976576040517f08c379a000000000000000000000000000000000000000000000000000000000815260040161096d9061125c565b60405180910390fd5b6000600560003373ffffffffffffffffffffffffffffffffffffffff1673ffffffffffffffffffffffffffffffffffffffff168152602001908152602001600020549050600081116109fd576040517f08c379a00000000000000000000000000000000000000000000000000000000081526004016109f4906112c8565b60405180910390fd5b80471015610a40576040517f08c379a0000000000000000000000000000000000000000000000000000000008152600401610a3790611334565b60405180910390fd5b6000600560003373ffffffffffffffffffffffffffffffffffffffff1673ffffffffffffffffffffffffffffffffffffffff168152602001908152602001600020819055503373ffffffffffffffffffffffffffffffffffffffff166108fc829081150290604051600060405180830381858888f19350505050158015610acb573d6000803e3d6000fd5b503373ffffffffffffffffffffffffffffffffffffffff167f106f923f993c2149d49b4255ff723acafa1f2d94393f561d3eda32ae348f724182604051610b129190610bdd565b60405180910390a250565b600260009054906101000a900473ffffffffffffffffffffffffffffffffffffffff1681565b60056020528060005260406000206000915090505481565b60045481565b6000819050919050565b7f4e487b7100000000000000000000000000000000000000000000000000000000600052601160045260246000fd5b6000610ba582610b61565b9150610bb083610b61565b9250828201905080821115610bc857610bc7610b6b565b5b92915050565b610bd781610b61565b82525050565b6000602082019050610bf26000830184610bce565b92915050565b600080fd5b610c0681610b61565b8114610c1157600080fd5b50565b600081359050610c2381610bfd565b92915050565b600073ffffffffffffffffffffffffffffffffffffffff82169050919050565b6000610c5482610c29565b9050919050565b610c6481610c49565b8114610c6f57600080fd5b50565b600081359050610c8181610c5b565b92915050565b600080600060608486031215610ca057610c9f610bf8565b5b6000610cae86828701610c14565b9350506020610cbf86828701610c72565b9250506040610cd086828701610c72565b9150509250925092565b6000819050919050565b6000610cff610cfa610cf584610c29565b610cda565b610c29565b9050919050565b6000610d1182610ce4565b9050919050565b6000610d2382610d06565b9050919050565b610d3381610d18565b82525050565b6000602082019050610d4e6000830184610d2a565b92915050565b610d5d81610c49565b82525050565b6000602082019050610d786000830184610d54565b92915050565b6000610d8982610d06565b9050919050565b610d9981610d7e565b82525050565b6000602082019050610db46000830184610d90565b92915050565b60008060408385031215610dd157610dd0610bf8565b5b6000610ddf85828601610c72565b9250506020610df085828601610c14565b9150509250929050565b6000610e0582610d06565b9050919050565b610e1581610dfa565b82525050565b6000602082019050610e306000830184610e0c565b92915050565b600060208284031215610e4c57610e4b610bf8565b5b6000610e5a84828501610c72565b91505092915050565b600081519050610e7281610bfd565b92915050565b600060208284031215610e8e57610e8d610bf8565b5b6000610e9c84828501610e63565b91505092915050565b600082825260208201905092915050565b7f55736572206973206e6f74207072656d69756d00000000000000000000000000600082015250565b6000610eec601383610ea5565b9150610ef782610eb6565b602082019050919050565b60006020820190508181036000830152610f1b81610edf565b9050919050565b60008115159050919050565b610f3781610f22565b8114610f4257600080fd5b50565b600081519050610f5481610f2e565b92915050565b600060208284031215610f7057610f6f610bf8565b5b6000610f7e84828501610f45565b91505092915050565b7f416e6f50726f206e6f7420766572696669656400000000000000000000000000600082015250565b6000610fbd601383610ea5565b9150610fc882610f87565b602082019050919050565b60006020820190508181036000830152610fec81610fb0565b9050919050565b60006060820190506110086000830186610bce565b6110156020830185610d54565b6110226040830184610d54565b949350505050565b7f4e6f20616374697665206361736520666f756e64000000000000000000000000600082015250565b6000611060601483610ea5565b915061106b8261102a565b602082019050919050565b6000602082019050818103600083015261108f81611053565b9050919050565b60006110a182610b61565b91506110ac83610b61565b92508282026110ba81610b61565b915082820484148315176110d1576110d0610b6b565b5b5092915050565b7f4e487b7100000000000000000000000000000000000000000000000000000000600052601260045260246000fd5b600061111282610b61565b915061111d83610b61565b92508261112d5761112c6110d8565b5b828204905092915050565b7f4e6f7420617574686f72697a6564000000000000000000000000000000000000600082015250565b600061116e600e83610ea5565b915061117982611138565b602082019050919050565b6000602082019050818103600083015261119d81611161565b9050919050565b7f4e6f7420656e6f7567682062616c616e63650000000000000000000000000000600082015250565b60006111da601283610ea5565b91506111e5826111a4565b602082019050919050565b60006020820190508181036000830152611209816111cd565b9050919050565b7f4e6f74206120766572696669656420416e6f50726f0000000000000000000000600082015250565b6000611246601583610ea5565b915061125182611210565b602082019050919050565b6000602082019050818103600083015261127581611239565b9050919050565b7f4e6f207265776172647320617661696c61626c65000000000000000000000000600082015250565b60006112b2601483610ea5565b91506112bd8261127c565b602082019050919050565b600060208201905081810360008301526112e1816112a5565b9050919050565b7f496e73756666696369656e7420636f6e74726163742062616c616e6365000000600082015250565b600061131e601d83610ea5565b9150611329826112e8565b602082019050919050565b6000602082019050818103600083015261134d81611311565b905091905056fea2646970667358221220ca1638219a5737d86f1f89df9ac1e39a24961047cef9f14b7ceaf9531b57d9c564736f6c634300081c0033",
  "linkReferences": {},
  "deployedLinkReferences": {}
}