{
  "_format": "hh-sol-artifact-1",
  "contractName": "AnoPassNFT",
  "sourceName": "contracts/AnoPassNFT.sol",
  "abi": [
    {
      "inputs": [],
      "stateMutability": "nonpayable",
      "type": "constructor"
    },
    {
      "inputs": [
        {
          "internalType": "address",
          "name": "sender",
          "type": "address"
        },
        {
          "internalType": "uint256",
          "name": "tokenId",
          "type": "uint256"
        },
        {
          "internalType": "address",
          "name": "owner",
          "type": "address"
        }
      ],
      "name": "ERC721IncorrectOwner",
      "type": "error"
    },
    {
      "inputs": [
        {
          "internalType": "address",
          "name": "operator",
          "type": "address"
        },
        {
          "internalType": "uint256",
          "name": "tokenId",
          "type": "uint256"
        }
      ],
      "name": "ERC721InsufficientApproval",
      "type": "error"
    },
    {
      "inputs": [
        {
          "internalType": "address",
          "name": "approver",
          "type": "address"
        }
      ],
      "name": "ERC721InvalidApprover",
      "type": "error"
    },
    {
      "inputs": [
        {
          "internalType": "address",
          "name": "operator",
          "type": "address"
        }
      ],
      "name": "ERC721InvalidOperator",
      "type": "error"
    },
    {
      "inputs": [
        {
          "internalType": "address",
          "name": "owner",
          "type": "address"
        }
      ],
      "name": "ERC721InvalidOwner",
      "type": "error"
    },
    {
      "inputs": [
        {
          "internalType": "address",
          "name": "receiver",
          "type": "address"
        }
      ],
      "name": "ERC721InvalidReceiver",
      "type": "error"
    },
    {
      "inputs": [
        {
          "internalType": "address",
          "name": "sender",
          "type": "address"
        }
      ],
      "name": "ERC721InvalidSender",
      "type": "error"
    },
    {
      "inputs": [
        {
          "internalType": "uint256",
          "name": "tokenId",
          "type": "uint256"
        }
      ],
      "name": "ERC721NonexistentToken",
      "type": "error"
    },
    {
      "inputs": [
        {
          "internalType": "address",
          "name": "owner",
          "type": "address"
        }
      ],
      "name": "OwnableInvalidOwner",
      "type": "error"
    },
    {
      "inputs": [
        {
          "internalType": "address",
          "name": "account",
          "type": "address"
        }
      ],
      "name": "OwnableUnauthorizedAccount",
      "type": "error"
    },
    {
      "anonymous": false,
      "inputs": [
        {
          "indexed": true,
          "internalType": "address",
          "name": "owner",
          "type": "address"
        },
        {
          "indexed": true,
          "internalType": "address",
          "name": "approved",
          "type": "address"
        },
        {
          "indexed": true,
          "internalType": "uint256",
          "name": "tokenId",
          "type": "uint256"
        }
      ],
      "name": "Approval",
      "type": "event"
    },
    {
      "anonymous": false,
      "inputs": [
        {
          "indexed": true,
          "internalType": "address",
          "name": "owner",
          "type": "address"
        },
        {
          "indexed": true,
          "internalType": "address",
          "name": "operator",
          "type": "address"
        },
        {
          "indexed": false,
          "internalType": "bool",
          "name": "approved",
          "type": "bool"
        }
      ],
      "name": "ApprovalForAll",
      "type": "event"
    },
    {
      "anonymous": false,
      "inputs": [
        {
          "indexed": true,
          "internalType": "address",
          "name": "user",
          "type": "address"
        },
        {
          "indexed": false,
          "internalType": "uint256",
          "name": "tokenId",
          "type": "uint256"
        },
        {
          "indexed": false,
          "internalType": "uint256",
          "name": "expiresAt",
          "type": "uint256"
        }
      ],
      "name": "MembershipPurchased",
      "type": "event"
    },
    {
      "anonymous": false,
      "inputs": [
        {
          "indexed": true,
          "internalType": "address",
          "name": "user",
          "type": "address"
        },
        {
          "indexed": false,
          "internalType": "uint256",
          "name": "tokenId",
          "type": "uint256"
        },
        {
          "indexed": false,
          "internalType": "uint256",
          "name": "newExpiry",
          "type": "uint256"
        }
      ],
      "name": "MembershipRenewed",
      "type": "event"
    },
    {
      "anonymous": false,
      "inputs": [
        {
          "indexed": true,
          "internalType": "address",
          "name": "previousOwner",
          "type": "address"
        },
        {
          "indexed": true,
          "internalType": "address",
          "name": "newOwner",
          "type": "address"
        }
      ],
      "name": "OwnershipTransferred",
      "type": "event"
    },
    {
      "anonymous": false,
      "inputs": [
        {
          "indexed": true,
          "internalType": "address",
          "name": "from",
          "type": "address"
        },
        {
          "indexed": true,
          "internalType": "address",
          "name": "to",
          "type": "address"
        },
        {
          "indexed": true,
          "internalType": "uint256",
          "name": "tokenId",
          "type": "uint256"
        }
      ],
      "name": "Transfer",
      "type": "event"
    },
    {
      "inputs": [
        {
          "internalType": "address",
          "name": "to",
          "type": "address"
        },
        {
          "internalType": "uint256",
          "name": "tokenId",
          "type": "uint256"
        }
      ],
      "name": "approve",
      "outputs": [],
      "stateMutability": "nonpayable",
      "type": "function"
    },
    {
      "inputs": [
        {
          "internalType": "address",
          "name": "owner",
          "type": "address"
        }
      ],
      "name": "balanceOf",
      "outputs": [
        {
          "internalType": "uint256",
          "name": "",
          "type": "uint256"
        }
      ],
      "stateMutability": "view",
      "type": "function"
    },
    {
      "inputs": [
        {
          "internalType": "uint256",
          "name": "limit",
          "type": "uint256"
        }
      ],
      "name": "batchBurnExpired",
      "outputs": [],
      "stateMutability": "nonpayable",
      "type": "function"
    },
    {
      "inputs": [
        {
          "internalType": "uint256",
          "name": "tokenId",
          "type": "uint256"
        }
      ],
      "name": "getApproved",
      "outputs": [
        {
          "internalType": "address",
          "name": "",
          "type": "address"
        }
      ],
      "stateMutability": "view",
      "type": "function"
    },
    {
      "inputs": [
        {
          "internalType": "address",
          "name": "user",
          "type": "address"
        }
      ],
      "name": "getExpiry",
      "outputs": [
        {
          "internalType": "uint256",
          "name": "",
          "type": "uint256"
        }
      ],
      "stateMutability": "view",
      "type": "function"
    },
    {
      "inputs": [
        {
          "internalType": "address",
          "name": "user",
          "type": "address"
        }
      ],
      "name": "isActive",
      "outputs": [
        {
          "internalType": "bool",
          "name": "",
          "type": "bool"
        }
      ],
      "stateMutability": "view",
      "type": "function"
    },
    {
      "inputs": [
        {
          "internalType": "address",
          "name": "owner",
          "type": "address"
        },
        {
          "internalType": "address",
          "name": "operator",
          "type": "address"
        }
      ],
      "name": "isApprovedForAll",
      "outputs": [
        {
          "internalType": "bool",
          "name": "",
          "type": "bool"
        }
      ],
      "stateMutability": "view",
      "type": "function"
    },
    {
      "inputs": [],
      "name": "membershipDuration",
      "outputs": [
        {
          "internalType": "uint256",
          "name": "",
          "type": "uint256"
        }
      ],
      "stateMutability": "view",
      "type": "function"
    },
    {
      "inputs": [],
      "name": "membershipPrice",
      "outputs": [
        {
          "internalType": "uint256",
          "name": "",
          "type": "uint256"
        }
      ],
      "stateMutability": "view",
      "type": "function"
    },
    {
      "inputs": [
        {
          "internalType": "address",
          "name": "",
          "type": "address"
        }
      ],
      "name": "memberships",
      "outputs": [
        {
          "internalType": "address",
          "name": "_address",
          "type": "address"
        },
        {
          "internalType": "uint256",
          "name": "tokenId",
          "type": "uint256"
        },
        {
          "internalType": "uint256",
          "name": "expiresAt",
          "type": "uint256"
        }
      ],
      "stateMutability": "view",
      "type": "function"
    },
    {
      "inputs": [],
      "name": "name",
      "outputs": [
        {
          "internalType": "string",
          "name": "",
          "type": "string"
        }
      ],
      "stateMutability": "view",
      "type": "function"
    },
    {
      "inputs": [],
      "name": "nextTokenId",
      "outputs": [
        {
          "internalType": "uint256",
          "name": "",
          "type": "uint256"
        }
      ],
      "stateMutability": "view",
      "type": "function"
    },
    {
      "inputs": [],
      "name": "owner",
      "outputs": [
        {
          "internalType": "address",
          "name": "",
          "type": "address"
        }
      ],
      "stateMutability": "view",
      "type": "function"
    },
    {
      "inputs": [
        {
          "internalType": "uint256",
          "name": "tokenId",
          "type": "uint256"
        }
      ],
      "name": "ownerOf",
      "outputs": [
        {
          "internalType": "address",
          "name": "",
          "type": "address"
        }
      ],
      "stateMutability": "view",
      "type": "function"
    },
    {
      "inputs": [],
      "name": "purchaseMembership",
      "outputs": [],
      "stateMutability": "payable",
      "type": "function"
    },
    {
      "inputs": [],
      "name": "renewMembership",
      "outputs": [],
      "stateMutability": "payable",
      "type": "function"
    },
    {
      "inputs": [],
      "name": "renounceOwnership",
      "outputs": [],
      "stateMutability": "nonpayable",
      "type": "function"
    },
    {
      "inputs": [
        {
          "internalType": "address",
          "name": "from",
          "type": "address"
        },
        {
          "internalType": "address",
          "name": "to",
          "type": "address"
        },
        {
          "internalType": "uint256",
          "name": "tokenId",
          "type": "uint256"
        }
      ],
      "name": "safeTransferFrom",
      "outputs": [],
      "stateMutability": "nonpayable",
      "type": "function"
    },
    {
      "inputs": [
        {
          "internalType": "address",
          "name": "from",
          "type": "address"
        },
        {
          "internalType": "address",
          "name": "to",
          "type": "address"
        },
        {
          "internalType": "uint256",
          "name": "tokenId",
          "type": "uint256"
        },
        {
          "internalType": "bytes",
          "name": "data",
          "type": "bytes"
        }
      ],
      "name": "safeTransferFrom",
      "outputs": [],
      "stateMutability": "nonpayable",
      "type": "function"
    },
    {
      "inputs": [
        {
          "internalType": "address",
          "name": "operator",
          "type": "address"
        },
        {
          "internalType": "bool",
          "name": "approved",
          "type": "bool"
        }
      ],
      "name": "setApprovalForAll",
      "outputs": [],
      "stateMutability": "nonpayable",
      "type": "function"
    },
    {
      "inputs": [
        {
          "internalType": "uint256",
          "name": "duration",
          "type": "uint256"
        }
      ],
      "name": "setMembershipDuration",
      "outputs": [],
      "stateMutability": "nonpayable",
      "type": "function"
    },
    {
      "inputs": [
        {
          "internalType": "uint256",
          "name": "price",
          "type": "uint256"
        }
      ],
      "name": "setMembershipPrice",
      "outputs": [],
      "stateMutability": "nonpayable",
      "type": "function"
    },
    {
      "inputs": [
        {
          "internalType": "bytes4",
          "name": "interfaceId",
          "type": "bytes4"
        }
      ],
      "name": "supportsInterface",
      "outputs": [
        {
          "internalType": "bool",
          "name": "",
          "type": "bool"
        }
      ],
      "stateMutability": "view",
      "type": "function"
    },
    {
      "inputs": [],
      "name": "symbol",
      "outputs": [
        {
          "internalType": "string",
          "name": "",
          "type": "string"
        }
      ],
      "stateMutability": "view",
      "type": "function"
    },
    {
      "inputs": [
        {
          "internalType": "uint256",
          "name": "tokenId",
          "type": "uint256"
        }
      ],
      "name": "tokenURI",
      "outputs": [
        {
          "internalType": "string",
          "name": "",
          "type": "string"
        }
      ],
      "stateMutability": "view",
      "type": "function"
    },
    {
      "inputs": [
        {
          "internalType": "address",
          "name": "from",
          "type": "address"
        },
        {
          "internalType": "address",
          "name": "to",
          "type": "address"
        },
        {
          "internalType": "uint256",
          "name": "tokenId",
          "type": "uint256"
        }
      ],
      "name": "transferFrom",
      "outputs": [],
      "stateMutability": "nonpayable",
      "type": "function"
    },
    {
      "inputs": [
        {
          "internalType": "address",
          "name": "newOwner",
          "type": "address"
        }
      ],
      "name": "transferOwnership",
      "outputs": [],
      "stateMutability": "nonpayable",
      "type": "function"
    },
    {
      "inputs": [
        {
          "internalType": "uint256",
          "name": "",
          "type": "uint256"
        }
      ],
      "name": "users",
      "outputs": [
        {
          "internalType": "address",
          "name": "",
          "type": "address"
        }
      ],
      "stateMutability": "view",
      "type": "function"
    },
    {
      "inputs": [],
      "name": "withdraw",
      "outputs": [],
      "stateMutability": "nonpayable",
      "type": "function"
    }
  ],
  "bytecode": "0x60806040526276a700600855662386f26fc1000060095534801561002257600080fd5b50336040518060400160405280601481526020017f416e6f63617265205072656d69756d20506173730000000000000000000000008152506040518060400160405280600781526020017f414e4f5041535300000000000000000000000000000000000000000000000000815250816000908161009f919061044f565b5080600190816100af919061044f565b505050600073ffffffffffffffffffffffffffffffffffffffff168173ffffffffffffffffffffffffffffffffffffffff16036101245760006040517f1e4fbdf700000000000000000000000000000000000000000000000000000000815260040161011b9190610562565b60405180910390fd5b6101338161013960201b60201c565b5061057d565b6000600660009054906101000a900473ffffffffffffffffffffffffffffffffffffffff16905081600660006101000a81548173ffffffffffffffffffffffffffffffffffffffff021916908373ffffffffffffffffffffffffffffffffffffffff1602179055508173ffffffffffffffffffffffffffffffffffffffff168173ffffffffffffffffffffffffffffffffffffffff167f8be0079c531659141344cd1fd0a4f28419497f9722a3daafe3b4186f6b6457e060405160405180910390a35050565b600081519050919050565b7f4e487b7100000000000000000000000000000000000000000000000000000000600052604160045260246000fd5b7f4e487b7100000000000000000000000000000000000000000000000000000000600052602260045260246000fd5b6000600282049050600182168061028057607f821691505b60208210810361029357610292610239565b5b50919050565b60008190508160005260206000209050919050565b60006020601f8301049050919050565b600082821b905092915050565b6000600883026102fb7fffffffffffffffffffffffffffffffffffffffffffffffffffffffffffffffff826102be565b61030586836102be565b95508019841693508086168417925050509392505050565b6000819050919050565b6000819050919050565b600061034c6103476103428461031d565b610327565b61031d565b9050919050565b6000819050919050565b61036683610331565b61037a61037282610353565b8484546102cb565b825550505050565b600090565b61038f610382565b61039a81848461035d565b505050565b5b818110156103be576103b3600082610387565b6001810190506103a0565b5050565b601f821115610403576103d481610299565b6103dd846102ae565b810160208510156103ec578190505b6104006103f8856102ae565b83018261039f565b50505b505050565b600082821c905092915050565b600061042660001984600802610408565b1980831691505092915050565b600061043f8383610415565b9150826002028217905092915050565b610458826101ff565b67ffffffffffffffff8111156104715761047061020a565b5b61047b8254610268565b6104868282856103c2565b600060209050601f8311600181146104b957600084156104a7578287015190505b6104b18582610433565b865550610519565b601f1984166104c786610299565b60005b828110156104ef578489015182556001820191506020850194506020810190506104ca565b8683101561050c5784890151610508601f891682610415565b8355505b6001600288020188555050505b505050505050565b600073ffffffffffffffffffffffffffffffffffffffff82169050919050565b600061054c82610521565b9050919050565b61055c81610541565b82525050565b60006020820190506105776000830184610553565b92915050565b612fea8061058c6000396000f3fe6080604052600436106101c25760003560e01c806369d5f38a116100f757806395d89b4111610095578063c857476a11610064578063c857476a14610614578063c87b56dd1461063d578063e985e9c51461067a578063f2fde38b146106b7576101c2565b806395d89b411461055a5780639f8a13d714610585578063a22cb465146105c2578063b88d4fde146105eb576101c2565b8063726fb2a5116100d1578063726fb2a51461048857806373d98799146104c557806375794a3c146105045780638da5cb5b1461052f576101c2565b806369d5f38a1461040b57806370a0823114610434578063715018a614610471576101c2565b806323b872dd1161016457806340aa8b261161013e57806340aa8b261461037257806342842e0e1461039b57806347bbe867146103c45780636352211e146103ce576101c2565b806323b872dd146102f5578063365b98b21461031e5780633ccfd60b1461035b576101c2565b8063081812fc116101a0578063081812fc1461025a5780630933b93914610297578063095ea7b3146102a15780630de3226b146102ca576101c2565b806301ffc9a7146101c757806306fdde0314610204578063080dd13c1461022f575b600080fd5b3480156101d357600080fd5b506101ee60048036038101906101e99190612590565b6106e0565b6040516101fb91906125d8565b60405180910390f35b34801561021057600080fd5b506102196106f2565b6040516102269190612683565b60405180910390f35b34801561023b57600080fd5b50610244610784565b60405161025191906126be565b60405180910390f35b34801561026657600080fd5b50610281600480360381019061027c9190612705565b61078a565b60405161028e9190612773565b60405180910390f35b61029f6107a6565b005b3480156102ad57600080fd5b506102c860048036038101906102c391906127ba565b6108ae565b005b3480156102d657600080fd5b506102df6108c4565b6040516102ec91906126be565b60405180910390f35b34801561030157600080fd5b5061031c600480360381019061031791906127fa565b6108ca565b005b34801561032a57600080fd5b5061034560048036038101906103409190612705565b6109cc565b6040516103529190612773565b60405180910390f35b34801561036757600080fd5b50610370610a0b565b005b34801561037e57600080fd5b5061039960048036038101906103949190612705565b610a63565b005b3480156103a757600080fd5b506103c260048036038101906103bd91906127fa565b610a75565b005b6103cc610a95565b005b3480156103da57600080fd5b506103f560048036038101906103f09190612705565b610cb7565b6040516104029190612773565b60405180910390f35b34801561041757600080fd5b50610432600480360381019061042d9190612705565b610cc9565b005b34801561044057600080fd5b5061045b6004803603810190610456919061284d565b610cdb565b60405161046891906126be565b60405180910390f35b34801561047d57600080fd5b50610486610d95565b005b34801561049457600080fd5b506104af60048036038101906104aa919061284d565b610da9565b6040516104bc91906126be565b60405180910390f35b3480156104d157600080fd5b506104ec60048036038101906104e7919061284d565b610df5565b6040516104fb9392919061287a565b60405180910390f35b34801561051057600080fd5b50610519610e3f565b60405161052691906126be565b60405180910390f35b34801561053b57600080fd5b50610544610e45565b6040516105519190612773565b60405180910390f35b34801561056657600080fd5b5061056f610e6f565b60405161057c9190612683565b60405180910390f35b34801561059157600080fd5b506105ac60048036038101906105a7919061284d565b610f01565b6040516105b991906125d8565b60405180910390f35b3480156105ce57600080fd5b506105e960048036038101906105e491906128dd565b610f4f565b005b3480156105f757600080fd5b50610612600480360381019061060d9190612a52565b610f65565b005b34801561062057600080fd5b5061063b60048036038101906106369190612705565b610f8a565b005b34801561064957600080fd5b50610664600480360381019061065f9190612705565b6111ab565b6040516106719190612683565b60405180910390f35b34801561068657600080fd5b506106a1600480360381019061069c9190612ad5565b611214565b6040516106ae91906125d8565b60405180910390f35b3480156106c357600080fd5b506106de60048036038101906106d9919061284d565b6112a8565b005b60006106eb8261132e565b9050919050565b60606000805461070190612b44565b80601f016020809104026020016040519081016040528092919081815260200182805461072d90612b44565b801561077a5780601f1061074f5761010080835404028352916020019161077a565b820191906000526020600020905b81548152906001019060200180831161075d57829003601f168201915b5050505050905090565b60085481565b600061079582611410565b5061079f82611498565b9050919050565b6009543410156107eb576040517f08c379a00000000000000000000000000000000000000000000000000000000081526004016107e290612bc1565b60405180910390fd5b3373ffffffffffffffffffffffffffffffffffffffff1661084d600a60003373ffffffffffffffffffffffffffffffffffffffff1673ffffffffffffffffffffffffffffffffffffffff16815260200190815260200160002060010154610cb7565b73ffffffffffffffffffffffffffffffffffffffff16146108a3576040517f08c379a000000000000000000000000000000000000000000000000000000000815260040161089a90612c2d565b60405180910390fd5b6108ac336114d5565b565b6108c082826108bb611607565b61160f565b5050565b60095481565b600073ffffffffffffffffffffffffffffffffffffffff168273ffffffffffffffffffffffffffffffffffffffff160361093c5760006040517f64a0ae920000000000000000000000000000000000000000000000000000000081526004016109339190612773565b60405180910390fd5b6000610950838361094b611607565b611621565b90508373ffffffffffffffffffffffffffffffffffffffff168173ffffffffffffffffffffffffffffffffffffffff16146109c6578382826040517f64283d7b0000000000000000000000000000000000000000000000000000000081526004016109bd93929190612c4d565b60405180910390fd5b50505050565b600b81815481106109dc57600080fd5b906000526020600020016000915054906101000a900473ffffffffffffffffffffffffffffffffffffffff1681565b610a136116b3565b610a1b610e45565b73ffffffffffffffffffffffffffffffffffffffff166108fc479081150290604051600060405180830381858888f19350505050158015610a60573d6000803e3d6000fd5b50565b610a6b6116b3565b8060088190555050565b610a9083838360405180602001604052806000815250610f65565b505050565b600954341015610ada576040517f08c379a0000000000000000000000000000000000000000000000000000000008152600401610ad190612bc1565b60405180910390fd5b610ae333610f01565b15610af657610af1336114d5565b610cb5565b60006007549050610b07338261173a565b600060085442610b179190612cb3565b905060405180606001604052803373ffffffffffffffffffffffffffffffffffffffff16815260200183815260200182815250600a60003373ffffffffffffffffffffffffffffffffffffffff1673ffffffffffffffffffffffffffffffffffffffff16815260200190815260200160002060008201518160000160006101000a81548173ffffffffffffffffffffffffffffffffffffffff021916908373ffffffffffffffffffffffffffffffffffffffff1602179055506020820151816001015560408201518160020155905050600b339080600181540180825580915050600190039060005260206000200160009091909190916101000a81548173ffffffffffffffffffffffffffffffffffffffff021916908373ffffffffffffffffffffffffffffffffffffffff16021790555060076000815480929190610c5d90612ce7565b91905055503373ffffffffffffffffffffffffffffffffffffffff167f413aaf5825c2fed97aa5722773ec7af83b4d187d3b4966b5c600e4cae7c4ca908383604051610caa929190612d2f565b60405180910390a250505b565b6000610cc282611410565b9050919050565b610cd16116b3565b8060098190555050565b60008073ffffffffffffffffffffffffffffffffffffffff168273ffffffffffffffffffffffffffffffffffffffff1603610d4e5760006040517f89c62b64000000000000000000000000000000000000000000000000000000008152600401610d459190612773565b60405180910390fd5b600360008373ffffffffffffffffffffffffffffffffffffffff1673ffffffffffffffffffffffffffffffffffffffff168152602001908152602001600020549050919050565b610d9d6116b3565b610da76000611758565b565b6000600a60008373ffffffffffffffffffffffffffffffffffffffff1673ffffffffffffffffffffffffffffffffffffffff168152602001908152602001600020600201549050919050565b600a6020528060005260406000206000915090508060000160009054906101000a900473ffffffffffffffffffffffffffffffffffffffff16908060010154908060020154905083565b60075481565b6000600660009054906101000a900473ffffffffffffffffffffffffffffffffffffffff16905090565b606060018054610e7e90612b44565b80601f0160208091040260200160405190810160405280929190818152602001828054610eaa90612b44565b8015610ef75780601f10610ecc57610100808354040283529160200191610ef7565b820191906000526020600020905b815481529060010190602001808311610eda57829003601f168201915b5050505050905090565b600042600a60008473ffffffffffffffffffffffffffffffffffffffff1673ffffffffffffffffffffffffffffffffffffffff16815260200190815260200160002060020154119050919050565b610f61610f5a611607565b838361181e565b5050565b610f708484846108ca565b610f84610f7b611607565b8585858561198d565b50505050565b6000805b600b8054905081108015610fa157508282105b156111a6576000600b8281548110610fbc57610fbb612d58565b5b9060005260206000200160009054906101000a900473ffffffffffffffffffffffffffffffffffffffff1690506000600a60008373ffffffffffffffffffffffffffffffffffffffff1673ffffffffffffffffffffffffffffffffffffffff1681526020019081526020016000206040518060600160405290816000820160009054906101000a900473ffffffffffffffffffffffffffffffffffffffff1673ffffffffffffffffffffffffffffffffffffffff1673ffffffffffffffffffffffffffffffffffffffff1681526020016001820154815260200160028201548152505090504281604001511080156110f757506000600a60008473ffffffffffffffffffffffffffffffffffffffff1673ffffffffffffffffffffffffffffffffffffffff1681526020019081526020016000206001015414155b15611191576111098160200151611b3e565b600a60008373ffffffffffffffffffffffffffffffffffffffff1673ffffffffffffffffffffffffffffffffffffffff168152602001908152602001600020600080820160006101000a81549073ffffffffffffffffffffffffffffffffffffffff0219169055600182016000905560028201600090555050838061118d90612ce7565b9450505b5050808061119e90612ce7565b915050610f8e565b505050565b60606111b682611410565b5060006111c1611bc4565b905060008151116111e1576040518060200160405280600081525061120c565b806111eb84611bdb565b6040516020016111fc929190612dc3565b6040516020818303038152906040525b915050919050565b6000600560008473ffffffffffffffffffffffffffffffffffffffff1673ffffffffffffffffffffffffffffffffffffffff16815260200190815260200160002060008373ffffffffffffffffffffffffffffffffffffffff1673ffffffffffffffffffffffffffffffffffffffff16815260200190815260200160002060009054906101000a900460ff16905092915050565b6112b06116b3565b600073ffffffffffffffffffffffffffffffffffffffff168173ffffffffffffffffffffffffffffffffffffffff16036113225760006040517f1e4fbdf70000000000000000000000000000000000000000000000000000000081526004016113199190612773565b60405180910390fd5b61132b81611758565b50565b60007f80ac58cd000000000000000000000000000000000000000000000000000000007bffffffffffffffffffffffffffffffffffffffffffffffffffffffff1916827bffffffffffffffffffffffffffffffffffffffffffffffffffffffff191614806113f957507f5b5e139f000000000000000000000000000000000000000000000000000000007bffffffffffffffffffffffffffffffffffffffffffffffffffffffff1916827bffffffffffffffffffffffffffffffffffffffffffffffffffffffff1916145b80611409575061140882611ca9565b5b9050919050565b60008061141c83611d13565b9050600073ffffffffffffffffffffffffffffffffffffffff168173ffffffffffffffffffffffffffffffffffffffff160361148f57826040517f7e27328900000000000000000000000000000000000000000000000000000000815260040161148691906126be565b60405180910390fd5b80915050919050565b60006004600083815260200190815260200160002060009054906101000a900473ffffffffffffffffffffffffffffffffffffffff169050919050565b600854600a60008373ffffffffffffffffffffffffffffffffffffffff1673ffffffffffffffffffffffffffffffffffffffff16815260200190815260200160002060020160008282546115299190612cb3565b925050819055508073ffffffffffffffffffffffffffffffffffffffff167fc2c37e3ea905ba32871ee4ffd3a7c43bc327abbae7b8852edeaf5bfda7152357600a60008473ffffffffffffffffffffffffffffffffffffffff1673ffffffffffffffffffffffffffffffffffffffff16815260200190815260200160002060010154600a60008573ffffffffffffffffffffffffffffffffffffffff1673ffffffffffffffffffffffffffffffffffffffff168152602001908152602001600020600201546040516115fc929190612d2f565b60405180910390a250565b600033905090565b61161c8383836001611d50565b505050565b60008061162d84611d13565b9050600073ffffffffffffffffffffffffffffffffffffffff168173ffffffffffffffffffffffffffffffffffffffff161461169e576040517f08c379a000000000000000000000000000000000000000000000000000000000815260040161169590612e59565b60405180910390fd5b6116a9858585611f15565b9150509392505050565b6116bb611607565b73ffffffffffffffffffffffffffffffffffffffff166116d9610e45565b73ffffffffffffffffffffffffffffffffffffffff1614611738576116fc611607565b6040517f118cdaa700000000000000000000000000000000000000000000000000000000815260040161172f9190612773565b60405180910390fd5b565b61175482826040518060200160405280600081525061212f565b5050565b6000600660009054906101000a900473ffffffffffffffffffffffffffffffffffffffff16905081600660006101000a81548173ffffffffffffffffffffffffffffffffffffffff021916908373ffffffffffffffffffffffffffffffffffffffff1602179055508173ffffffffffffffffffffffffffffffffffffffff168173ffffffffffffffffffffffffffffffffffffffff167f8be0079c531659141344cd1fd0a4f28419497f9722a3daafe3b4186f6b6457e060405160405180910390a35050565b600073ffffffffffffffffffffffffffffffffffffffff168273ffffffffffffffffffffffffffffffffffffffff160361188f57816040517f5b08ba180000000000000000000000000000000000000000000000000000000081526004016118869190612773565b60405180910390fd5b80600560008573ffffffffffffffffffffffffffffffffffffffff1673ffffffffffffffffffffffffffffffffffffffff16815260200190815260200160002060008473ffffffffffffffffffffffffffffffffffffffff1673ffffffffffffffffffffffffffffffffffffffff16815260200190815260200160002060006101000a81548160ff0219169083151502179055508173ffffffffffffffffffffffffffffffffffffffff168373ffffffffffffffffffffffffffffffffffffffff167f17307eab39ab6107e8899845ad3d59bd9653f200f220920489ca2b5937696c318360405161198091906125d8565b60405180910390a3505050565b60008373ffffffffffffffffffffffffffffffffffffffff163b1115611b37578273ffffffffffffffffffffffffffffffffffffffff1663150b7a02868685856040518563ffffffff1660e01b81526004016119ec9493929190612ece565b6020604051808303816000875af1925050508015611a2857506040513d601f19601f82011682018060405250810190611a259190612f2f565b60015b611aac573d8060008114611a58576040519150601f19603f3d011682016040523d82523d6000602084013e611a5d565b606091505b506000815103611aa457836040517f64a0ae92000000000000000000000000000000000000000000000000000000008152600401611a9b9190612773565b60405180910390fd5b805181602001fd5b63150b7a0260e01b7bffffffffffffffffffffffffffffffffffffffffffffffffffffffff1916817bffffffffffffffffffffffffffffffffffffffffffffffffffffffff191614611b3557836040517f64a0ae92000000000000000000000000000000000000000000000000000000008152600401611b2c9190612773565b60405180910390fd5b505b5050505050565b6000611b4d6000836000611621565b9050600073ffffffffffffffffffffffffffffffffffffffff168173ffffffffffffffffffffffffffffffffffffffff1603611bc057816040517f7e273289000000000000000000000000000000000000000000000000000000008152600401611bb791906126be565b60405180910390fd5b5050565b606060405180602001604052806000815250905090565b606060006001611bea84612153565b01905060008167ffffffffffffffff811115611c0957611c08612927565b5b6040519080825280601f01601f191660200182016040528015611c3b5781602001600182028036833780820191505090505b509050600082602001820190505b600115611c9e578080600190039150507f3031323334353637383961626364656600000000000000000000000000000000600a86061a8153600a8581611c9257611c91612f5c565b5b04945060008503611c49575b819350505050919050565b60007f01ffc9a7000000000000000000000000000000000000000000000000000000007bffffffffffffffffffffffffffffffffffffffffffffffffffffffff1916827bffffffffffffffffffffffffffffffffffffffffffffffffffffffff1916149050919050565b60006002600083815260200190815260200160002060009054906101000a900473ffffffffffffffffffffffffffffffffffffffff169050919050565b8080611d895750600073ffffffffffffffffffffffffffffffffffffffff168273ffffffffffffffffffffffffffffffffffffffff1614155b15611ebd576000611d9984611410565b9050600073ffffffffffffffffffffffffffffffffffffffff168373ffffffffffffffffffffffffffffffffffffffff1614158015611e0457508273ffffffffffffffffffffffffffffffffffffffff168173ffffffffffffffffffffffffffffffffffffffff1614155b8015611e175750611e158184611214565b155b15611e5957826040517fa9fbf51f000000000000000000000000000000000000000000000000000000008152600401611e509190612773565b60405180910390fd5b8115611ebb57838573ffffffffffffffffffffffffffffffffffffffff168273ffffffffffffffffffffffffffffffffffffffff167f8c5be1e5ebec7d5bd14f71427d1e84f3dd0314c0f7b2291e5b200ac8c7c3b92560405160405180910390a45b505b836004600085815260200190815260200160002060006101000a81548173ffffffffffffffffffffffffffffffffffffffff021916908373ffffffffffffffffffffffffffffffffffffffff16021790555050505050565b600080611f2184611d13565b9050600073ffffffffffffffffffffffffffffffffffffffff168373ffffffffffffffffffffffffffffffffffffffff1614611f6357611f628184866122a6565b5b600073ffffffffffffffffffffffffffffffffffffffff168173ffffffffffffffffffffffffffffffffffffffff1614611ff457611fa5600085600080611d50565b6001600360008373ffffffffffffffffffffffffffffffffffffffff1673ffffffffffffffffffffffffffffffffffffffff168152602001908152602001600020600082825403925050819055505b600073ffffffffffffffffffffffffffffffffffffffff168573ffffffffffffffffffffffffffffffffffffffff1614612077576001600360008773ffffffffffffffffffffffffffffffffffffffff1673ffffffffffffffffffffffffffffffffffffffff168152602001908152602001600020600082825401925050819055505b846002600086815260200190815260200160002060006101000a81548173ffffffffffffffffffffffffffffffffffffffff021916908373ffffffffffffffffffffffffffffffffffffffff160217905550838573ffffffffffffffffffffffffffffffffffffffff168273ffffffffffffffffffffffffffffffffffffffff167fddf252ad1be2c89b69c2b068fc378daa952ba7f163c4a11628f55a4df523b3ef60405160405180910390a4809150509392505050565b612139838361236a565b61214e612144611607565b600085858561198d565b505050565b600080600090507a184f03e93ff9f4daa797ed6e38ed64bf6a1f01000000000000000083106121b1577a184f03e93ff9f4daa797ed6e38ed64bf6a1f01000000000000000083816121a7576121a6612f5c565b5b0492506040810190505b6d04ee2d6d415b85acef810000000083106121ee576d04ee2d6d415b85acef810000000083816121e4576121e3612f5c565b5b0492506020810190505b662386f26fc10000831061221d57662386f26fc10000838161221357612212612f5c565b5b0492506010810190505b6305f5e1008310612246576305f5e100838161223c5761223b612f5c565b5b0492506008810190505b612710831061226b57612710838161226157612260612f5c565b5b0492506004810190505b6064831061228e576064838161228457612283612f5c565b5b0492506002810190505b600a831061229d576001810190505b80915050919050565b6122b1838383612463565b61236557600073ffffffffffffffffffffffffffffffffffffffff168373ffffffffffffffffffffffffffffffffffffffff160361232657806040517f7e27328900000000000000000000000000000000000000000000000000000000815260040161231d91906126be565b60405180910390fd5b81816040517f177e802f00000000000000000000000000000000000000000000000000000000815260040161235c929190612f8b565b60405180910390fd5b505050565b600073ffffffffffffffffffffffffffffffffffffffff168273ffffffffffffffffffffffffffffffffffffffff16036123dc5760006040517f64a0ae920000000000000000000000000000000000000000000000000000000081526004016123d39190612773565b60405180910390fd5b60006123ea83836000611621565b9050600073ffffffffffffffffffffffffffffffffffffffff168173ffffffffffffffffffffffffffffffffffffffff161461245e5760006040517f73c6ac6e0000000000000000000000000000000000000000000000000000000081526004016124559190612773565b60405180910390fd5b505050565b60008073ffffffffffffffffffffffffffffffffffffffff168373ffffffffffffffffffffffffffffffffffffffff161415801561251b57508273ffffffffffffffffffffffffffffffffffffffff168473ffffffffffffffffffffffffffffffffffffffff1614806124dc57506124db8484611214565b5b8061251a57508273ffffffffffffffffffffffffffffffffffffffff1661250283611498565b73ffffffffffffffffffffffffffffffffffffffff16145b5b90509392505050565b6000604051905090565b600080fd5b600080fd5b60007fffffffff0000000000000000000000000000000000000000000000000000000082169050919050565b61256d81612538565b811461257857600080fd5b50565b60008135905061258a81612564565b92915050565b6000602082840312156125a6576125a561252e565b5b60006125b48482850161257b565b91505092915050565b60008115159050919050565b6125d2816125bd565b82525050565b60006020820190506125ed60008301846125c9565b92915050565b600081519050919050565b600082825260208201905092915050565b60005b8381101561262d578082015181840152602081019050612612565b60008484015250505050565b6000601f19601f8301169050919050565b6000612655826125f3565b61265f81856125fe565b935061266f81856020860161260f565b61267881612639565b840191505092915050565b6000602082019050818103600083015261269d818461264a565b905092915050565b6000819050919050565b6126b8816126a5565b82525050565b60006020820190506126d360008301846126af565b92915050565b6126e2816126a5565b81146126ed57600080fd5b50565b6000813590506126ff816126d9565b92915050565b60006020828403121561271b5761271a61252e565b5b6000612729848285016126f0565b91505092915050565b600073ffffffffffffffffffffffffffffffffffffffff82169050919050565b600061275d82612732565b9050919050565b61276d81612752565b82525050565b60006020820190506127886000830184612764565b92915050565b61279781612752565b81146127a257600080fd5b50565b6000813590506127b48161278e565b92915050565b600080604083850312156127d1576127d061252e565b5b60006127df858286016127a5565b92505060206127f0858286016126f0565b9150509250929050565b6000806000606084860312156128135761281261252e565b5b6000612821868287016127a5565b9350506020612832868287016127a5565b9250506040612843868287016126f0565b9150509250925092565b6000602082840312156128635761286261252e565b5b6000612871848285016127a5565b91505092915050565b600060608201905061288f6000830186612764565b61289c60208301856126af565b6128a960408301846126af565b949350505050565b6128ba816125bd565b81146128c557600080fd5b50565b6000813590506128d7816128b1565b92915050565b600080604083850312156128f4576128f361252e565b5b6000612902858286016127a5565b9250506020612913858286016128c8565b9150509250929050565b600080fd5b600080fd5b7f4e487b7100000000000000000000000000000000000000000000000000000000600052604160045260246000fd5b61295f82612639565b810181811067ffffffffffffffff8211171561297e5761297d612927565b5b80604052505050565b6000612991612524565b905061299d8282612956565b919050565b600067ffffffffffffffff8211156129bd576129bc612927565b5b6129c682612639565b9050602081019050919050565b82818337600083830152505050565b60006129f56129f0846129a2565b612987565b905082815260208101848484011115612a1157612a10612922565b5b612a1c8482856129d3565b509392505050565b600082601f830112612a3957612a3861291d565b5b8135612a498482602086016129e2565b91505092915050565b60008060008060808587031215612a6c57612a6b61252e565b5b6000612a7a878288016127a5565b9450506020612a8b878288016127a5565b9350506040612a9c878288016126f0565b925050606085013567ffffffffffffffff811115612abd57612abc612533565b5b612ac987828801612a24565b91505092959194509250565b60008060408385031215612aec57612aeb61252e565b5b6000612afa858286016127a5565b9250506020612b0b858286016127a5565b9150509250929050565b7f4e487b7100000000000000000000000000000000000000000000000000000000600052602260045260246000fd5b60006002820490506001821680612b5c57607f821691505b602082108103612b6f57612b6e612b15565b5b50919050565b7f496e73756666696369656e74207061796d656e74000000000000000000000000600082015250565b6000612bab6014836125fe565b9150612bb682612b75565b602082019050919050565b60006020820190508181036000830152612bda81612b9e565b9050919050565b7f4e6f742074686520746f6b656e206f776e657200000000000000000000000000600082015250565b6000612c176013836125fe565b9150612c2282612be1565b602082019050919050565b60006020820190508181036000830152612c4681612c0a565b9050919050565b6000606082019050612c626000830186612764565b612c6f60208301856126af565b612c7c6040830184612764565b949350505050565b7f4e487b7100000000000000000000000000000000000000000000000000000000600052601160045260246000fd5b6000612cbe826126a5565b9150612cc9836126a5565b9250828201905080821115612ce157612ce0612c84565b5b92915050565b6000612cf2826126a5565b91507fffffffffffffffffffffffffffffffffffffffffffffffffffffffffffffffff8203612d2457612d23612c84565b5b600182019050919050565b6000604082019050612d4460008301856126af565b612d5160208301846126af565b9392505050565b7f4e487b7100000000000000000000000000000000000000000000000000000000600052603260045260246000fd5b600081905092915050565b6000612d9d826125f3565b612da78185612d87565b9350612db781856020860161260f565b80840191505092915050565b6000612dcf8285612d92565b9150612ddb8284612d92565b91508190509392505050565b7f4d656d62657273686970204e4654206973206e6f6e2d7472616e73666572616260008201527f6c65000000000000000000000000000000000000000000000000000000000000602082015250565b6000612e436022836125fe565b9150612e4e82612de7565b604082019050919050565b60006020820190508181036000830152612e7281612e36565b9050919050565b600081519050919050565b600082825260208201905092915050565b6000612ea082612e79565b612eaa8185612e84565b9350612eba81856020860161260f565b612ec381612639565b840191505092915050565b6000608082019050612ee36000830187612764565b612ef06020830186612764565b612efd60408301856126af565b8181036060830152612f0f8184612e95565b905095945050505050565b600081519050612f2981612564565b92915050565b600060208284031215612f4557612f4461252e565b5b6000612f5384828501612f1a565b91505092915050565b7f4e487b7100000000000000000000000000000000000000000000000000000000600052601260045260246000fd5b6000604082019050612fa06000830185612764565b612fad60208301846126af565b939250505056fea2646970667358221220054b7537fa096ea186a6a798f94e98274da1785d9ed6606fee5f129aa2d8c5a164736f6c634300081c0033",
  "linkReferences": {},
  "deployedLinkReferences": {}
}