{
  "_format": "hh-sol-artifact-1",
  "contractName": "VerifiedAnoProNFT",
  "sourceName": "contracts/VerifiedAnoProNFT.sol",
  "abi": [
    {
      "inputs": [
        {
          "internalType": "string",
          "name": "_baseTokenURI",
          "type": "string"
        }
      ],
      "stateMutability": "nonpayable",
      "type": "constructor"
    },
    {
      "inputs": [
        {
          "internalType": "address",
          "name": "sender",
          "type": "address"
        },
        {
          "internalType": "uint256",
          "name": "tokenId",
          "type": "uint256"
        },
        {
          "internalType": "address",
          "name": "owner",
          "type": "address"
        }
      ],
      "name": "ERC721IncorrectOwner",
      "type": "error"
    },
    {
      "inputs": [
        {
          "internalType": "address",
          "name": "operator",
          "type": "address"
        },
        {
          "internalType": "uint256",
          "name": "tokenId",
          "type": "uint256"
        }
      ],
      "name": "ERC721InsufficientApproval",
      "type": "error"
    },
    {
      "inputs": [
        {
          "internalType": "address",
          "name": "approver",
          "type": "address"
        }
      ],
      "name": "ERC721InvalidApprover",
      "type": "error"
    },
    {
      "inputs": [
        {
          "internalType": "address",
          "name": "operator",
          "type": "address"
        }
      ],
      "name": "ERC721InvalidOperator",
      "type": "error"
    },
    {
      "inputs": [
        {
          "internalType": "address",
          "name": "owner",
          "type": "address"
        }
      ],
      "name": "ERC721InvalidOwner",
      "type": "error"
    },
    {
      "inputs": [
        {
          "internalType": "address",
          "name": "receiver",
          "type": "address"
        }
      ],
      "name": "ERC721InvalidReceiver",
      "type": "error"
    },
    {
      "inputs": [
        {
          "internalType": "address",
          "name": "sender",
          "type": "address"
        }
      ],
      "name": "ERC721InvalidSender",
      "type": "error"
    },
    {
      "inputs": [
        {
          "internalType": "uint256",
          "name": "tokenId",
          "type": "uint256"
        }
      ],
      "name": "ERC721NonexistentToken",
      "type": "error"
    },
    {
      "inputs": [
        {
          "internalType": "address",
          "name": "owner",
          "type": "address"
        }
      ],
      "name": "OwnableInvalidOwner",
      "type": "error"
    },
    {
      "inputs": [
        {
          "internalType": "address",
          "name": "account",
          "type": "address"
        }
      ],
      "name": "OwnableUnauthorizedAccount",
      "type": "error"
    },
    {
      "anonymous": false,
      "inputs": [
        {
          "indexed": true,
          "internalType": "address",
          "name": "owner",
          "type": "address"
        },
        {
          "indexed": true,
          "internalType": "address",
          "name": "approved",
          "type": "address"
        },
        {
          "indexed": true,
          "internalType": "uint256",
          "name": "tokenId",
          "type": "uint256"
        }
      ],
      "name": "Approval",
      "type": "event"
    },
    {
      "anonymous": false,
      "inputs": [
        {
          "indexed": true,
          "internalType": "address",
          "name": "owner",
          "type": "address"
        },
        {
          "indexed": true,
          "internalType": "address",
          "name": "operator",
          "type": "address"
        },
        {
          "indexed": false,
          "internalType": "bool",
          "name": "approved",
          "type": "bool"
        }
      ],
      "name": "ApprovalForAll",
      "type": "event"
    },
    {
      "anonymous": false,
      "inputs": [
        {
          "indexed": true,
          "internalType": "address",
          "name": "previousOwner",
          "type": "address"
        },
        {
          "indexed": true,
          "internalType": "address",
          "name": "newOwner",
          "type": "address"
        }
      ],
      "name": "OwnershipTransferred",
      "type": "event"
    },
    {
      "anonymous": false,
      "inputs": [
        {
          "indexed": true,
          "internalType": "address",
          "name": "from",
          "type": "address"
        },
        {
          "indexed": true,
          "internalType": "address",
          "name": "to",
          "type": "address"
        },
        {
          "indexed": true,
          "internalType": "uint256",
          "name": "tokenId",
          "type": "uint256"
        }
      ],
      "name": "Transfer",
      "type": "event"
    },
    {
      "inputs": [
        {
          "internalType": "address",
          "name": "to",
          "type": "address"
        },
        {
          "internalType": "uint256",
          "name": "tokenId",
          "type": "uint256"
        }
      ],
      "name": "approve",
      "outputs": [],
      "stateMutability": "nonpayable",
      "type": "function"
    },
    {
      "inputs": [
        {
          "internalType": "address",
          "name": "owner",
          "type": "address"
        }
      ],
      "name": "balanceOf",
      "outputs": [
        {
          "internalType": "uint256",
          "name": "",
          "type": "uint256"
        }
      ],
      "stateMutability": "view",
      "type": "function"
    },
    {
      "inputs": [
        {
          "internalType": "uint256",
          "name": "tokenId",
          "type": "uint256"
        }
      ],
      "name": "getApproved",
      "outputs": [
        {
          "internalType": "address",
          "name": "",
          "type": "address"
        }
      ],
      "stateMutability": "view",
      "type": "function"
    },
    {
      "inputs": [
        {
          "internalType": "address",
          "name": "user",
          "type": "address"
        }
      ],
      "name": "hasNFT",
      "outputs": [
        {
          "internalType": "bool",
          "name": "",
          "type": "bool"
        }
      ],
      "stateMutability": "view",
      "type": "function"
    },
    {
      "inputs": [
        {
          "internalType": "address",
          "name": "owner",
          "type": "address"
        },
        {
          "internalType": "address",
          "name": "operator",
          "type": "address"
        }
      ],
      "name": "isApprovedForAll",
      "outputs": [
        {
          "internalType": "bool",
          "name": "",
          "type": "bool"
        }
      ],
      "stateMutability": "view",
      "type": "function"
    },
    {
      "inputs": [
        {
          "internalType": "address",
          "name": "anoPro",
          "type": "address"
        }
      ],
      "name": "isVerified",
      "outputs": [
        {
          "internalType": "bool",
          "name": "",
          "type": "bool"
        }
      ],
      "stateMutability": "view",
      "type": "function"
    },
    {
      "inputs": [
        {
          "internalType": "address",
          "name": "to",
          "type": "address"
        }
      ],
      "name": "mint",
      "outputs": [],
      "stateMutability": "nonpayable",
      "type": "function"
    },
    {
      "inputs": [],
      "name": "name",
      "outputs": [
        {
          "internalType": "string",
          "name": "",
          "type": "string"
        }
      ],
      "stateMutability": "view",
      "type": "function"
    },
    {
      "inputs": [],
      "name": "nextTokenId",
      "outputs": [
        {
          "internalType": "uint256",
          "name": "",
          "type": "uint256"
        }
      ],
      "stateMutability": "view",
      "type": "function"
    },
    {
      "inputs": [],
      "name": "owner",
      "outputs": [
        {
          "internalType": "address",
          "name": "",
          "type": "address"
        }
      ],
      "stateMutability": "view",
      "type": "function"
    },
    {
      "inputs": [
        {
          "internalType": "uint256",
          "name": "tokenId",
          "type": "uint256"
        }
      ],
      "name": "ownerOf",
      "outputs": [
        {
          "internalType": "address",
          "name": "",
          "type": "address"
        }
      ],
      "stateMutability": "view",
      "type": "function"
    },
    {
      "inputs": [],
      "name": "renounceOwnership",
      "outputs": [],
      "stateMutability": "nonpayable",
      "type": "function"
    },
    {
      "inputs": [
        {
          "internalType": "address",
          "name": "from",
          "type": "address"
        },
        {
          "internalType": "address",
          "name": "to",
          "type": "address"
        },
        {
          "internalType": "uint256",
          "name": "tokenId",
          "type": "uint256"
        }
      ],
      "name": "safeTransferFrom",
      "outputs": [],
      "stateMutability": "nonpayable",
      "type": "function"
    },
    {
      "inputs": [
        {
          "internalType": "address",
          "name": "from",
          "type": "address"
        },
        {
          "internalType": "address",
          "name": "to",
          "type": "address"
        },
        {
          "internalType": "uint256",
          "name": "tokenId",
          "type": "uint256"
        },
        {
          "internalType": "bytes",
          "name": "data",
          "type": "bytes"
        }
      ],
      "name": "safeTransferFrom",
      "outputs": [],
      "stateMutability": "nonpayable",
      "type": "function"
    },
    {
      "inputs": [
        {
          "internalType": "address",
          "name": "operator",
          "type": "address"
        },
        {
          "internalType": "bool",
          "name": "approved",
          "type": "bool"
        }
      ],
      "name": "setApprovalForAll",
      "outputs": [],
      "stateMutability": "nonpayable",
      "type": "function"
    },
    {
      "inputs": [
        {
          "internalType": "string",
          "name": "_baseTokenURI",
          "type": "string"
        }
      ],
      "name": "setBaseTokenURI",
      "outputs": [],
      "stateMutability": "nonpayable",
      "type": "function"
    },
    {
      "inputs": [
        {
          "internalType": "bytes4",
          "name": "interfaceId",
          "type": "bytes4"
        }
      ],
      "name": "supportsInterface",
      "outputs": [
        {
          "internalType": "bool",
          "name": "",
          "type": "bool"
        }
      ],
      "stateMutability": "view",
      "type": "function"
    },
    {
      "inputs": [],
      "name": "symbol",
      "outputs": [
        {
          "internalType": "string",
          "name": "",
          "type": "string"
        }
      ],
      "stateMutability": "view",
      "type": "function"
    },
    {
      "inputs": [
        {
          "internalType": "uint256",
          "name": "tokenId",
          "type": "uint256"
        }
      ],
      "name": "tokenURI",
      "outputs": [
        {
          "internalType": "string",
          "name": "",
          "type": "string"
        }
      ],
      "stateMutability": "view",
      "type": "function"
    },
    {
      "inputs": [
        {
          "internalType": "address",
          "name": "from",
          "type": "address"
        },
        {
          "internalType": "address",
          "name": "to",
          "type": "address"
        },
        {
          "internalType": "uint256",
          "name": "tokenId",
          "type": "uint256"
        }
      ],
      "name": "transferFrom",
      "outputs": [],
      "stateMutability": "nonpayable",
      "type": "function"
    },
    {
      "inputs": [
        {
          "internalType": "address",
          "name": "newOwner",
          "type": "address"
        }
      ],
      "name": "transferOwnership",
      "outputs": [],
      "stateMutability": "nonpayable",
      "type": "function"
    }
  ],
  "bytecode": "0x608060405234801561001057600080fd5b50604051612b88380380612b8883398181016040528101906100329190610394565b336040518060400160405280601181526020017f5665726966696564416e6f50726f4e46540000000000000000000000000000008152506040518060400160405280600381526020017f564150000000000000000000000000000000000000000000000000000000000081525081600090816100ae91906105fe565b5080600190816100be91906105fe565b505050600073ffffffffffffffffffffffffffffffffffffffff168173ffffffffffffffffffffffffffffffffffffffff16036101335760006040517f1e4fbdf700000000000000000000000000000000000000000000000000000000815260040161012a9190610711565b60405180910390fd5b6101428161015960201b60201c565b50806008908161015291906105fe565b505061072c565b6000600660009054906101000a900473ffffffffffffffffffffffffffffffffffffffff16905081600660006101000a81548173ffffffffffffffffffffffffffffffffffffffff021916908373ffffffffffffffffffffffffffffffffffffffff1602179055508173ffffffffffffffffffffffffffffffffffffffff168173ffffffffffffffffffffffffffffffffffffffff167f8be0079c531659141344cd1fd0a4f28419497f9722a3daafe3b4186f6b6457e060405160405180910390a35050565b6000604051905090565b600080fd5b600080fd5b600080fd5b600080fd5b6000601f19601f8301169050919050565b7f4e487b7100000000000000000000000000000000000000000000000000000000600052604160045260246000fd5b6102868261023d565b810181811067ffffffffffffffff821117156102a5576102a461024e565b5b80604052505050565b60006102b861021f565b90506102c4828261027d565b919050565b600067ffffffffffffffff8211156102e4576102e361024e565b5b6102ed8261023d565b9050602081019050919050565b60005b838110156103185780820151818401526020810190506102fd565b60008484015250505050565b6000610337610332846102c9565b6102ae565b90508281526020810184848401111561035357610352610238565b5b61035e8482856102fa565b509392505050565b600082601f83011261037b5761037a610233565b5b815161038b848260208601610324565b91505092915050565b6000602082840312156103aa576103a9610229565b5b600082015167ffffffffffffffff8111156103c8576103c761022e565b5b6103d484828501610366565b91505092915050565b600081519050919050565b7f4e487b7100000000000000000000000000000000000000000000000000000000600052602260045260246000fd5b6000600282049050600182168061042f57607f821691505b602082108103610442576104416103e8565b5b50919050565b60008190508160005260206000209050919050565b60006020601f8301049050919050565b600082821b905092915050565b6000600883026104aa7fffffffffffffffffffffffffffffffffffffffffffffffffffffffffffffffff8261046d565b6104b4868361046d565b95508019841693508086168417925050509392505050565b6000819050919050565b6000819050919050565b60006104fb6104f66104f1846104cc565b6104d6565b6104cc565b9050919050565b6000819050919050565b610515836104e0565b61052961052182610502565b84845461047a565b825550505050565b600090565b61053e610531565b61054981848461050c565b505050565b5b8181101561056d57610562600082610536565b60018101905061054f565b5050565b601f8211156105b25761058381610448565b61058c8461045d565b8101602085101561059b578190505b6105af6105a78561045d565b83018261054e565b50505b505050565b600082821c905092915050565b60006105d5600019846008026105b7565b1980831691505092915050565b60006105ee83836105c4565b9150826002028217905092915050565b610607826103dd565b67ffffffffffffffff8111156106205761061f61024e565b5b61062a8254610417565b610635828285610571565b600060209050601f8311600181146106685760008415610656578287015190505b61066085826105e2565b8655506106c8565b601f19841661067686610448565b60005b8281101561069e57848901518255600182019150602085019450602081019050610679565b868310156106bb57848901516106b7601f8916826105c4565b8355505b6001600288020188555050505b505050505050565b600073ffffffffffffffffffffffffffffffffffffffff82169050919050565b60006106fb826106d0565b9050919050565b61070b816106f0565b82525050565b60006020820190506107266000830184610702565b92915050565b61244d8061073b6000396000f3fe608060405234801561001057600080fd5b50600436106101375760003560e01c8063715018a6116100b8578063a22cb4651161007c578063a22cb4651461033a578063b88d4fde14610356578063b9209e3314610372578063c87b56dd146103a2578063e985e9c5146103d2578063f2fde38b1461040257610137565b8063715018a6146102a657806375794a3c146102b0578063785f8ee3146102ce5780638da5cb5b146102fe57806395d89b411461031c57610137565b806330176e13116100ff57806330176e13146101f257806342842e0e1461020e5780636352211e1461022a5780636a6278421461025a57806370a082311461027657610137565b806301ffc9a71461013c57806306fdde031461016c578063081812fc1461018a578063095ea7b3146101ba57806323b872dd146101d6575b600080fd5b610156600480360381019061015191906118db565b61041e565b6040516101639190611923565b60405180910390f35b610174610500565b60405161018191906119ce565b60405180910390f35b6101a4600480360381019061019f9190611a26565b610592565b6040516101b19190611a94565b60405180910390f35b6101d460048036038101906101cf9190611adb565b6105ae565b005b6101f060048036038101906101eb9190611b1b565b6105c4565b005b61020c60048036038101906102079190611ca3565b6106c6565b005b61022860048036038101906102239190611b1b565b6106e1565b005b610244600480360381019061023f9190611a26565b610701565b6040516102519190611a94565b60405180910390f35b610274600480360381019061026f9190611cec565b610713565b005b610290600480360381019061028b9190611cec565b61079a565b60405161029d9190611d28565b60405180910390f35b6102ae610854565b005b6102b8610868565b6040516102c59190611d28565b60405180910390f35b6102e860048036038101906102e39190611cec565b61086e565b6040516102f59190611923565b60405180910390f35b610306610882565b6040516103139190611a94565b60405180910390f35b6103246108ac565b60405161033191906119ce565b60405180910390f35b610354600480360381019061034f9190611d6f565b61093e565b005b610370600480360381019061036b9190611e50565b610954565b005b61038c60048036038101906103879190611cec565b610979565b6040516103999190611923565b60405180910390f35b6103bc60048036038101906103b79190611a26565b61098d565b6040516103c991906119ce565b60405180910390f35b6103ec60048036038101906103e79190611ed3565b610ac3565b6040516103f99190611923565b60405180910390f35b61041c60048036038101906104179190611cec565b610b57565b005b60007f80ac58cd000000000000000000000000000000000000000000000000000000007bffffffffffffffffffffffffffffffffffffffffffffffffffffffff1916827bffffffffffffffffffffffffffffffffffffffffffffffffffffffff191614806104e957507f5b5e139f000000000000000000000000000000000000000000000000000000007bffffffffffffffffffffffffffffffffffffffffffffffffffffffff1916827bffffffffffffffffffffffffffffffffffffffffffffffffffffffff1916145b806104f957506104f882610bdd565b5b9050919050565b60606000805461050f90611f42565b80601f016020809104026020016040519081016040528092919081815260200182805461053b90611f42565b80156105885780601f1061055d57610100808354040283529160200191610588565b820191906000526020600020905b81548152906001019060200180831161056b57829003601f168201915b5050505050905090565b600061059d82610c47565b506105a782610ccf565b9050919050565b6105c082826105bb610d0c565b610d14565b5050565b600073ffffffffffffffffffffffffffffffffffffffff168273ffffffffffffffffffffffffffffffffffffffff16036106365760006040517f64a0ae9200000000000000000000000000000000000000000000000000000000815260040161062d9190611a94565b60405180910390fd5b600061064a8383610645610d0c565b610d26565b90508373ffffffffffffffffffffffffffffffffffffffff168173ffffffffffffffffffffffffffffffffffffffff16146106c0578382826040517f64283d7b0000000000000000000000000000000000000000000000000000000081526004016106b793929190611f73565b60405180910390fd5b50505050565b6106ce610f40565b80600890816106dd9190612156565b5050565b6106fc83838360405180602001604052806000815250610954565b505050565b600061070c82610c47565b9050919050565b61071b610f40565b6000600754905061072c8282610fc7565b816009600083815260200190815260200160002060006101000a81548173ffffffffffffffffffffffffffffffffffffffff021916908373ffffffffffffffffffffffffffffffffffffffff1602179055506007600081548092919061079190612257565b91905055505050565b60008073ffffffffffffffffffffffffffffffffffffffff168273ffffffffffffffffffffffffffffffffffffffff160361080d5760006040517f89c62b640000000000000000000000000000000000000000000000000000000081526004016108049190611a94565b60405180910390fd5b600360008373ffffffffffffffffffffffffffffffffffffffff1673ffffffffffffffffffffffffffffffffffffffff168152602001908152602001600020549050919050565b61085c610f40565b6108666000610fe5565b565b60075481565b60008061087a8361079a565b119050919050565b6000600660009054906101000a900473ffffffffffffffffffffffffffffffffffffffff16905090565b6060600180546108bb90611f42565b80601f01602080910402602001604051908101604052809291908181526020018280546108e790611f42565b80156109345780601f1061090957610100808354040283529160200191610934565b820191906000526020600020905b81548152906001019060200180831161091757829003601f168201915b5050505050905090565b610950610949610d0c565b83836110ab565b5050565b61095f8484846105c4565b61097361096a610d0c565b8585858561121a565b50505050565b6000806109858361079a565b119050919050565b6060600073ffffffffffffffffffffffffffffffffffffffff166009600084815260200190815260200160002060009054906101000a900473ffffffffffffffffffffffffffffffffffffffff1673ffffffffffffffffffffffffffffffffffffffff1603610a31576040517f08c379a0000000000000000000000000000000000000000000000000000000008152600401610a28906122eb565b60405180910390fd5b60088054610a3e90611f42565b80601f0160208091040260200160405190810160405280929190818152602001828054610a6a90611f42565b8015610ab75780601f10610a8c57610100808354040283529160200191610ab7565b820191906000526020600020905b815481529060010190602001808311610a9a57829003601f168201915b50505050509050919050565b6000600560008473ffffffffffffffffffffffffffffffffffffffff1673ffffffffffffffffffffffffffffffffffffffff16815260200190815260200160002060008373ffffffffffffffffffffffffffffffffffffffff1673ffffffffffffffffffffffffffffffffffffffff16815260200190815260200160002060009054906101000a900460ff16905092915050565b610b5f610f40565b600073ffffffffffffffffffffffffffffffffffffffff168173ffffffffffffffffffffffffffffffffffffffff1603610bd15760006040517f1e4fbdf7000000000000000000000000000000000000000000000000000000008152600401610bc89190611a94565b60405180910390fd5b610bda81610fe5565b50565b60007f01ffc9a7000000000000000000000000000000000000000000000000000000007bffffffffffffffffffffffffffffffffffffffffffffffffffffffff1916827bffffffffffffffffffffffffffffffffffffffffffffffffffffffff1916149050919050565b600080610c53836113cb565b9050600073ffffffffffffffffffffffffffffffffffffffff168173ffffffffffffffffffffffffffffffffffffffff1603610cc657826040517f7e273289000000000000000000000000000000000000000000000000000000008152600401610cbd9190611d28565b60405180910390fd5b80915050919050565b60006004600083815260200190815260200160002060009054906101000a900473ffffffffffffffffffffffffffffffffffffffff169050919050565b600033905090565b610d218383836001611408565b505050565b600080610d32846113cb565b9050600073ffffffffffffffffffffffffffffffffffffffff168373ffffffffffffffffffffffffffffffffffffffff1614610d7457610d738184866115cd565b5b600073ffffffffffffffffffffffffffffffffffffffff168173ffffffffffffffffffffffffffffffffffffffff1614610e0557610db6600085600080611408565b6001600360008373ffffffffffffffffffffffffffffffffffffffff1673ffffffffffffffffffffffffffffffffffffffff168152602001908152602001600020600082825403925050819055505b600073ffffffffffffffffffffffffffffffffffffffff168573ffffffffffffffffffffffffffffffffffffffff1614610e88576001600360008773ffffffffffffffffffffffffffffffffffffffff1673ffffffffffffffffffffffffffffffffffffffff168152602001908152602001600020600082825401925050819055505b846002600086815260200190815260200160002060006101000a81548173ffffffffffffffffffffffffffffffffffffffff021916908373ffffffffffffffffffffffffffffffffffffffff160217905550838573ffffffffffffffffffffffffffffffffffffffff168273ffffffffffffffffffffffffffffffffffffffff167fddf252ad1be2c89b69c2b068fc378daa952ba7f163c4a11628f55a4df523b3ef60405160405180910390a4809150509392505050565b610f48610d0c565b73ffffffffffffffffffffffffffffffffffffffff16610f66610882565b73ffffffffffffffffffffffffffffffffffffffff1614610fc557610f89610d0c565b6040517f118cdaa7000000000000000000000000000000000000000000000000000000008152600401610fbc9190611a94565b60405180910390fd5b565b610fe1828260405180602001604052806000815250611691565b5050565b6000600660009054906101000a900473ffffffffffffffffffffffffffffffffffffffff16905081600660006101000a81548173ffffffffffffffffffffffffffffffffffffffff021916908373ffffffffffffffffffffffffffffffffffffffff1602179055508173ffffffffffffffffffffffffffffffffffffffff168173ffffffffffffffffffffffffffffffffffffffff167f8be0079c531659141344cd1fd0a4f28419497f9722a3daafe3b4186f6b6457e060405160405180910390a35050565b600073ffffffffffffffffffffffffffffffffffffffff168273ffffffffffffffffffffffffffffffffffffffff160361111c57816040517f5b08ba180000000000000000000000000000000000000000000000000000000081526004016111139190611a94565b60405180910390fd5b80600560008573ffffffffffffffffffffffffffffffffffffffff1673ffffffffffffffffffffffffffffffffffffffff16815260200190815260200160002060008473ffffffffffffffffffffffffffffffffffffffff1673ffffffffffffffffffffffffffffffffffffffff16815260200190815260200160002060006101000a81548160ff0219169083151502179055508173ffffffffffffffffffffffffffffffffffffffff168373ffffffffffffffffffffffffffffffffffffffff167f17307eab39ab6107e8899845ad3d59bd9653f200f220920489ca2b5937696c318360405161120d9190611923565b60405180910390a3505050565b60008373ffffffffffffffffffffffffffffffffffffffff163b11156113c4578273ffffffffffffffffffffffffffffffffffffffff1663150b7a02868685856040518563ffffffff1660e01b81526004016112799493929190612360565b6020604051808303816000875af19250505080156112b557506040513d601f19601f820116820180604052508101906112b291906123c1565b60015b611339573d80600081146112e5576040519150601f19603f3d011682016040523d82523d6000602084013e6112ea565b606091505b50600081510361133157836040517f64a0ae920000000000000000000000000000000000000000000000000000000081526004016113289190611a94565b60405180910390fd5b805181602001fd5b63150b7a0260e01b7bffffffffffffffffffffffffffffffffffffffffffffffffffffffff1916817bffffffffffffffffffffffffffffffffffffffffffffffffffffffff1916146113c257836040517f64a0ae920000000000000000000000000000000000000000000000000000000081526004016113b99190611a94565b60405180910390fd5b505b5050505050565b60006002600083815260200190815260200160002060009054906101000a900473ffffffffffffffffffffffffffffffffffffffff169050919050565b80806114415750600073ffffffffffffffffffffffffffffffffffffffff168273ffffffffffffffffffffffffffffffffffffffff1614155b1561157557600061145184610c47565b9050600073ffffffffffffffffffffffffffffffffffffffff168373ffffffffffffffffffffffffffffffffffffffff16141580156114bc57508273ffffffffffffffffffffffffffffffffffffffff168173ffffffffffffffffffffffffffffffffffffffff1614155b80156114cf57506114cd8184610ac3565b155b1561151157826040517fa9fbf51f0000000000000000000000000000000000000000000000000000000081526004016115089190611a94565b60405180910390fd5b811561157357838573ffffffffffffffffffffffffffffffffffffffff168273ffffffffffffffffffffffffffffffffffffffff167f8c5be1e5ebec7d5bd14f71427d1e84f3dd0314c0f7b2291e5b200ac8c7c3b92560405160405180910390a45b505b836004600085815260200190815260200160002060006101000a81548173ffffffffffffffffffffffffffffffffffffffff021916908373ffffffffffffffffffffffffffffffffffffffff16021790555050505050565b6115d88383836116b5565b61168c57600073ffffffffffffffffffffffffffffffffffffffff168373ffffffffffffffffffffffffffffffffffffffff160361164d57806040517f7e2732890000000000000000000000000000000000000000000000000000000081526004016116449190611d28565b60405180910390fd5b81816040517f177e802f0000000000000000000000000000000000000000000000000000000081526004016116839291906123ee565b60405180910390fd5b505050565b61169b8383611776565b6116b06116a6610d0c565b600085858561121a565b505050565b60008073ffffffffffffffffffffffffffffffffffffffff168373ffffffffffffffffffffffffffffffffffffffff161415801561176d57508273ffffffffffffffffffffffffffffffffffffffff168473ffffffffffffffffffffffffffffffffffffffff16148061172e575061172d8484610ac3565b5b8061176c57508273ffffffffffffffffffffffffffffffffffffffff1661175483610ccf565b73ffffffffffffffffffffffffffffffffffffffff16145b5b90509392505050565b600073ffffffffffffffffffffffffffffffffffffffff168273ffffffffffffffffffffffffffffffffffffffff16036117e85760006040517f64a0ae920000000000000000000000000000000000000000000000000000000081526004016117df9190611a94565b60405180910390fd5b60006117f683836000610d26565b9050600073ffffffffffffffffffffffffffffffffffffffff168173ffffffffffffffffffffffffffffffffffffffff161461186a5760006040517f73c6ac6e0000000000000000000000000000000000000000000000000000000081526004016118619190611a94565b60405180910390fd5b505050565b6000604051905090565b600080fd5b600080fd5b60007fffffffff0000000000000000000000000000000000000000000000000000000082169050919050565b6118b881611883565b81146118c357600080fd5b50565b6000813590506118d5816118af565b92915050565b6000602082840312156118f1576118f0611879565b5b60006118ff848285016118c6565b91505092915050565b60008115159050919050565b61191d81611908565b82525050565b60006020820190506119386000830184611914565b92915050565b600081519050919050565b600082825260208201905092915050565b60005b8381101561197857808201518184015260208101905061195d565b60008484015250505050565b6000601f19601f8301169050919050565b60006119a08261193e565b6119aa8185611949565b93506119ba81856020860161195a565b6119c381611984565b840191505092915050565b600060208201905081810360008301526119e88184611995565b905092915050565b6000819050919050565b611a03816119f0565b8114611a0e57600080fd5b50565b600081359050611a20816119fa565b92915050565b600060208284031215611a3c57611a3b611879565b5b6000611a4a84828501611a11565b91505092915050565b600073ffffffffffffffffffffffffffffffffffffffff82169050919050565b6000611a7e82611a53565b9050919050565b611a8e81611a73565b82525050565b6000602082019050611aa96000830184611a85565b92915050565b611ab881611a73565b8114611ac357600080fd5b50565b600081359050611ad581611aaf565b92915050565b60008060408385031215611af257611af1611879565b5b6000611b0085828601611ac6565b9250506020611b1185828601611a11565b9150509250929050565b600080600060608486031215611b3457611b33611879565b5b6000611b4286828701611ac6565b9350506020611b5386828701611ac6565b9250506040611b6486828701611a11565b9150509250925092565b600080fd5b600080fd5b7f4e487b7100000000000000000000000000000000000000000000000000000000600052604160045260246000fd5b611bb082611984565b810181811067ffffffffffffffff82111715611bcf57611bce611b78565b5b80604052505050565b6000611be261186f565b9050611bee8282611ba7565b919050565b600067ffffffffffffffff821115611c0e57611c0d611b78565b5b611c1782611984565b9050602081019050919050565b82818337600083830152505050565b6000611c46611c4184611bf3565b611bd8565b905082815260208101848484011115611c6257611c61611b73565b5b611c6d848285611c24565b509392505050565b600082601f830112611c8a57611c89611b6e565b5b8135611c9a848260208601611c33565b91505092915050565b600060208284031215611cb957611cb8611879565b5b600082013567ffffffffffffffff811115611cd757611cd661187e565b5b611ce384828501611c75565b91505092915050565b600060208284031215611d0257611d01611879565b5b6000611d1084828501611ac6565b91505092915050565b611d22816119f0565b82525050565b6000602082019050611d3d6000830184611d19565b92915050565b611d4c81611908565b8114611d5757600080fd5b50565b600081359050611d6981611d43565b92915050565b60008060408385031215611d8657611d85611879565b5b6000611d9485828601611ac6565b9250506020611da585828601611d5a565b9150509250929050565b600067ffffffffffffffff821115611dca57611dc9611b78565b5b611dd382611984565b9050602081019050919050565b6000611df3611dee84611daf565b611bd8565b905082815260208101848484011115611e0f57611e0e611b73565b5b611e1a848285611c24565b509392505050565b600082601f830112611e3757611e36611b6e565b5b8135611e47848260208601611de0565b91505092915050565b60008060008060808587031215611e6a57611e69611879565b5b6000611e7887828801611ac6565b9450506020611e8987828801611ac6565b9350506040611e9a87828801611a11565b925050606085013567ffffffffffffffff811115611ebb57611eba61187e565b5b611ec787828801611e22565b91505092959194509250565b60008060408385031215611eea57611ee9611879565b5b6000611ef885828601611ac6565b9250506020611f0985828601611ac6565b9150509250929050565b7f4e487b7100000000000000000000000000000000000000000000000000000000600052602260045260246000fd5b60006002820490506001821680611f5a57607f821691505b602082108103611f6d57611f6c611f13565b5b50919050565b6000606082019050611f886000830186611a85565b611f956020830185611d19565b611fa26040830184611a85565b949350505050565b60008190508160005260206000209050919050565b60006020601f8301049050919050565b600082821b905092915050565b60006008830261200c7fffffffffffffffffffffffffffffffffffffffffffffffffffffffffffffffff82611fcf565b6120168683611fcf565b95508019841693508086168417925050509392505050565b6000819050919050565b600061205361204e612049846119f0565b61202e565b6119f0565b9050919050565b6000819050919050565b61206d83612038565b6120816120798261205a565b848454611fdc565b825550505050565b600090565b612096612089565b6120a1818484612064565b505050565b5b818110156120c5576120ba60008261208e565b6001810190506120a7565b5050565b601f82111561210a576120db81611faa565b6120e484611fbf565b810160208510156120f3578190505b6121076120ff85611fbf565b8301826120a6565b50505b505050565b600082821c905092915050565b600061212d6000198460080261210f565b1980831691505092915050565b6000612146838361211c565b9150826002028217905092915050565b61215f8261193e565b67ffffffffffffffff81111561217857612177611b78565b5b6121828254611f42565b61218d8282856120c9565b600060209050601f8311600181146121c057600084156121ae578287015190505b6121b8858261213a565b865550612220565b601f1984166121ce86611faa565b60005b828110156121f6578489015182556001820191506020850194506020810190506121d1565b86831015612213578489015161220f601f89168261211c565b8355505b6001600288020188555050505b505050505050565b7f4e487b7100000000000000000000000000000000000000000000000000000000600052601160045260246000fd5b6000612262826119f0565b91507fffffffffffffffffffffffffffffffffffffffffffffffffffffffffffffffff820361229457612293612228565b5b600182019050919050565b7f4e465420646f6573206e6f742065786973740000000000000000000000000000600082015250565b60006122d5601283611949565b91506122e08261229f565b602082019050919050565b60006020820190508181036000830152612304816122c8565b9050919050565b600081519050919050565b600082825260208201905092915050565b60006123328261230b565b61233c8185612316565b935061234c81856020860161195a565b61235581611984565b840191505092915050565b60006080820190506123756000830187611a85565b6123826020830186611a85565b61238f6040830185611d19565b81810360608301526123a18184612327565b905095945050505050565b6000815190506123bb816118af565b92915050565b6000602082840312156123d7576123d6611879565b5b60006123e5848285016123ac565b91505092915050565b60006040820190506124036000830185611a85565b6124106020830184611d19565b939250505056fea264697066735822122058dc548dfa4204b2bc3e73eb02450e320ed65f06ba3058c411e73e428b826fd164736f6c634300081c0033",
  "linkReferences": {},
  "deployedLinkReferences": {}
}